{
  "_format": "hh-sol-artifact-1",
  "contractName": "RoseDerby",
  "sourceName": "contracts/RoseDerby.sol",
  "abi": [
    {
      "inputs": [],
      "stateMutability": "nonpayable",
      "type": "constructor"
    },
    {
      "anonymous": false,
      "inputs": [
        {
          "indexed": false,
          "internalType": "uint256",
          "name": "index",
          "type": "uint256"
        },
        {
          "indexed": false,
          "internalType": "enum RoseDerby.Horse",
          "name": "horse",
          "type": "uint8"
        },
        {
          "indexed": false,
          "internalType": "uint256",
          "name": "amount",
          "type": "uint256"
        }
      ],
      "name": "BetPlaced",
      "type": "event"
    },
    {
      "anonymous": false,
      "inputs": [
        {
          "indexed": false,
          "internalType": "uint256",
          "name": "index",
          "type": "uint256"
        },
        {
          "indexed": false,
          "internalType": "uint8[5]",
          "name": "results",
          "type": "uint8[5]"
        }
      ],
      "name": "RaceResultsDetermined",
      "type": "event"
    },
    {
      "anonymous": false,
      "inputs": [
        {
          "indexed": false,
          "internalType": "uint256",
          "name": "index",
          "type": "uint256"
        }
      ],
      "name": "RaceScheduled",
      "type": "event"
    },
    {
      "inputs": [],
      "name": "OWNER_TAKE",
      "outputs": [
        {
          "internalType": "uint256",
          "name": "",
          "type": "uint256"
        }
      ],
      "stateMutability": "view",
      "type": "function"
    },
    {
      "inputs": [
        {
          "internalType": "uint256",
          "name": "",
          "type": "uint256"
        }
      ],
      "name": "_races",
      "outputs": [
        {
          "internalType": "uint256",
          "name": "take",
          "type": "uint256"
        },
        {
          "internalType": "uint256",
          "name": "callerIncentive",
          "type": "uint256"
        },
        {
          "internalType": "uint256",
          "name": "postTime",
          "type": "uint256"
        },
        {
          "internalType": "uint256",
          "name": "pool",
          "type": "uint256"
        },
        {
          "internalType": "bool",
          "name": "finished",
          "type": "bool"
        }
      ],
      "stateMutability": "view",
      "type": "function"
    },
    {
      "inputs": [
        {
          "internalType": "uint256",
          "name": "index",
          "type": "uint256"
        }
      ],
      "name": "determineResults",
      "outputs": [],
      "stateMutability": "nonpayable",
      "type": "function"
    },
    {
      "inputs": [],
      "name": "getWinningsBalance",
      "outputs": [
        {
          "internalType": "uint256",
          "name": "",
          "type": "uint256"
        }
      ],
      "stateMutability": "view",
      "type": "function"
    },
    {
      "inputs": [
        {
          "internalType": "uint256",
          "name": "index",
          "type": "uint256"
        },
        {
          "internalType": "enum RoseDerby.Horse",
          "name": "horse",
          "type": "uint8"
        }
      ],
      "name": "placeBet",
      "outputs": [],
      "stateMutability": "payable",
      "type": "function"
    },
    {
      "inputs": [
        {
          "internalType": "uint256",
          "name": "postTime",
          "type": "uint256"
        },
        {
          "internalType": "uint256",
          "name": "take",
          "type": "uint256"
        },
        {
          "internalType": "uint256",
          "name": "callerIncentive",
          "type": "uint256"
        }
      ],
      "name": "scheduleRace",
      "outputs": [],
      "stateMutability": "nonpayable",
      "type": "function"
    },
    {
      "inputs": [],
      "name": "withdraw",
      "outputs": [],
      "stateMutability": "nonpayable",
      "type": "function"
    }
  ],
  "bytecode": "0x608060405234801561001057600080fd5b50336000806101000a81548173ffffffffffffffffffffffffffffffffffffffff021916908373ffffffffffffffffffffffffffffffffffffffff160217905550611dfa806100606000396000f3fe6080604052600436106100705760003560e01c80633ccfd60b1161004e5780633ccfd60b146100fd578063741c0a0f146101145780638cf02d771461013f578063a2872b151461016857610070565b806303edf9141461007557806320731dec1461009157806327fc7cea146100bc575b600080fd5b61008f600480360381019061008a91906112ad565b610191565b005b34801561009d57600080fd5b506100a66104e2565b6040516100b391906112fc565b60405180910390f35b3480156100c857600080fd5b506100e360048036038101906100de9190611317565b6104e7565b6040516100f495949392919061135f565b60405180910390f35b34801561010957600080fd5b5061011261053a565b005b34801561012057600080fd5b506101296106f9565b60405161013691906112fc565b60405180910390f35b34801561014b57600080fd5b50610166600480360381019061016191906113b2565b610740565b005b34801561017457600080fd5b5061018f600480360381019061018a9190611317565b61095b565b005b8160018054905081106101d9576040517f08c379a00000000000000000000000000000000000000000000000000000000081526004016101d090611462565b60405180910390fd5b600183815481106101ed576101ec611482565b5b906000526020600020906005020160020154421115610241576040517f08c379a0000000000000000000000000000000000000000000000000000000008152600401610238906114fd565b60405180910390fd5b671bc16d674ec8000034101561028c576040517f08c379a000000000000000000000000000000000000000000000000000000000815260040161028390611569565b60405180910390fd5b60008260048111156102a1576102a0611589565b5b905034600360008681526020019081526020016000208260ff16600581106102cc576102cb611482565b5b6002020160000160008282546102e291906115e7565b925050819055506000600460008681526020019081526020016000208260ff166005811061031357610312611482565b5b0160003373ffffffffffffffffffffffffffffffffffffffff1673ffffffffffffffffffffffffffffffffffffffff16815260200190815260200160002054036103e857600360008581526020019081526020016000208160ff166005811061037f5761037e611482565b5b60020201600101339080600181540180825580915050600190039060005260206000200160009091909190916101000a81548173ffffffffffffffffffffffffffffffffffffffff021916908373ffffffffffffffffffffffffffffffffffffffff1602179055505b34600460008681526020019081526020016000208260ff166005811061041157610410611482565b5b0160003373ffffffffffffffffffffffffffffffffffffffff1673ffffffffffffffffffffffffffffffffffffffff168152602001908152602001600020600082825461045e91906115e7565b92505081905550346001858154811061047a57610479611482565b5b9060005260206000209060050201600301600082825461049a91906115e7565b925050819055507fffa237b01b68a7ca7b44fcf2b5546194ab8003cd7f3e51800b3d78e3cc56633f8484346040516104d493929190611663565b60405180910390a150505050565b600281565b600181815481106104f757600080fd5b90600052602060002090600502016000915090508060000154908060010154908060020154908060030154908060040160009054906101000a900460ff16905085565b6000600560003373ffffffffffffffffffffffffffffffffffffffff1673ffffffffffffffffffffffffffffffffffffffff168152602001908152602001600020549050600081116105c1576040517f08c379a00000000000000000000000000000000000000000000000000000000081526004016105b8906116e6565b60405180910390fd5b80471015610604576040517f08c379a00000000000000000000000000000000000000000000000000000000081526004016105fb90611752565b60405180910390fd5b6000600560003373ffffffffffffffffffffffffffffffffffffffff1673ffffffffffffffffffffffffffffffffffffffff1681526020019081526020016000208190555060003373ffffffffffffffffffffffffffffffffffffffff168260405161066f906117a3565b60006040518083038185875af1925050503d80600081146106ac576040519150601f19603f3d011682016040523d82523d6000602084013e6106b1565b606091505b50509050806106f5576040517f08c379a00000000000000000000000000000000000000000000000000000000081526004016106ec90611804565b60405180910390fd5b5050565b6000600560003373ffffffffffffffffffffffffffffffffffffffff1673ffffffffffffffffffffffffffffffffffffffff16815260200190815260200160002054905090565b60646002828461075091906115e7565b61075a91906115e7565b111561079b576040517f08c379a000000000000000000000000000000000000000000000000000000000815260040161079290611896565b60405180910390fd5b8242106107dd576040517f08c379a00000000000000000000000000000000000000000000000000000000081526004016107d490611928565b60405180910390fd5b6107e561121c565b82816000018181525050818160200181815250508381604001818152505060018190806001815401808255809150506001900390600052602060002090600502016000909190919091506000820151816000015560208201518160010155604082015181600201556060820151816003015560808201518160040160006101000a81548160ff0219169083151502179055505050600260405180602001604052803373ffffffffffffffffffffffffffffffffffffffff168152509080600181540180825580915050600190039060005260206000200160009091909190915060008201518160000160006101000a81548173ffffffffffffffffffffffffffffffffffffffff021916908373ffffffffffffffffffffffffffffffffffffffff16021790555050507fd953610f43ff17e3c896e88e0508777c741486ba5556dbaf9c6488a672ab7834600180805490506109409190611948565b60405161094d91906112fc565b60405180910390a150505050565b8060018054905081106109a3576040517f08c379a000000000000000000000000000000000000000000000000000000000815260040161099a90611462565b60405180910390fd5b6000600183815481106109b9576109b8611482565b5b90600052602060002090600502016040518060a0016040529081600082015481526020016001820154815260200160028201548152602001600382015481526020016004820160009054906101000a900460ff16151515158152505090508060400151421015610a5e576040517f08c379a0000000000000000000000000000000000000000000000000000000008152600401610a55906119c8565b60405180910390fd5b806080015115610aa3576040517f08c379a0000000000000000000000000000000000000000000000000000000008152600401610a9a90611a34565b60405180910390fd5b6000610abf600560405180602001604052806000815250611119565b905060006040518060a00160405280600060ff168152602001600160ff168152602001600260ff168152602001600360ff168152602001600460ff16815250905060005b6005811015610bd55760006005848381518110610b2357610b22611482565b5b602001015160f81c60f81b60f81c610b3b9190611a90565b90506000838260ff1660058110610b5557610b54611482565b5b60200201519050838360058110610b6f57610b6e611482565b5b6020020151848360ff1660058110610b8a57610b89611482565b5b602002019060ff16908160ff168152505080848460058110610baf57610bae611482565b5b602002019060ff16908160ff168152505050508080610bcd90611ac1565b915050610b03565b50600081600060058110610bec57610beb611482565b5b602002015190506000600360008881526020019081526020016000208260ff1660058110610c1d57610c1c611482565b5b600202016040518060400160405290816000820154815260200160018201805480602002602001604051908101604052809291908181526020018280548015610cbb57602002820191906000526020600020905b8160009054906101000a900473ffffffffffffffffffffffffffffffffffffffff1673ffffffffffffffffffffffffffffffffffffffff1681526020019060010190808311610c71575b5050505050815250509050606460028660600151610cd99190611b09565b610ce39190611b4b565b600560008060009054906101000a900473ffffffffffffffffffffffffffffffffffffffff1673ffffffffffffffffffffffffffffffffffffffff1673ffffffffffffffffffffffffffffffffffffffff1681526020019081526020016000206000828254610d5291906115e7565b92505081905550606485600001518660600151610d6f9190611b09565b610d799190611b4b565b6005600060028a81548110610d9157610d90611482565b5b9060005260206000200160000160009054906101000a900473ffffffffffffffffffffffffffffffffffffffff1673ffffffffffffffffffffffffffffffffffffffff1673ffffffffffffffffffffffffffffffffffffffff1681526020019081526020016000206000828254610e0891906115e7565b92505081905550606485602001518660600151610e259190611b09565b610e2f9190611b4b565b600560003373ffffffffffffffffffffffffffffffffffffffff1673ffffffffffffffffffffffffffffffffffffffff1681526020019081526020016000206000828254610e7d91906115e7565b9250508190555060006064866020015187600001516002610e9e91906115e7565b610ea891906115e7565b6064610eb49190611948565b60018a81548110610ec857610ec7611482565b5b906000526020600020906005020160030154610ee49190611b09565b610eee9190611b4b565b905060005b82602001515181101561101357600083602001518281518110610f1957610f18611482565b5b602002602001015190506000600460008c81526020019081526020016000208660ff1660058110610f4d57610f4c611482565b5b0160008373ffffffffffffffffffffffffffffffffffffffff1673ffffffffffffffffffffffffffffffffffffffff16815260200190815260200160002054905084600001518185610f9f9190611b09565b610fa99190611b4b565b600560008473ffffffffffffffffffffffffffffffffffffffff1673ffffffffffffffffffffffffffffffffffffffff1681526020019081526020016000206000828254610ff791906115e7565b925050819055505050808061100b90611ac1565b915050610ef3565b506000826020015151036110995780600560008060009054906101000a900473ffffffffffffffffffffffffffffffffffffffff1673ffffffffffffffffffffffffffffffffffffffff1673ffffffffffffffffffffffffffffffffffffffff168152602001908152602001600020600082825461109191906115e7565b925050819055505b60018089815481106110ae576110ad611482565b5b906000526020600020906005020160040160006101000a81548160ff0219169083151502179055507f850571c0bc8056ed8a3d8ae710220ad0c7df67810b36fdbd73ccd3dad6718b488885604051611107929190611c27565b60405180910390a15050505050505050565b6060611125838361112d565b905092915050565b606060008073010000000000000000000000000000000000000173ffffffffffffffffffffffffffffffffffffffff168585604051602001611170929190611ce0565b60405160208183030381529060405260405161118c9190611d41565b600060405180830381855afa9150503d80600081146111c7576040519150601f19603f3d011682016040523d82523d6000602084013e6111cc565b606091505b509150915081611211576040517f08c379a000000000000000000000000000000000000000000000000000000000815260040161120890611da4565b60405180910390fd5b809250505092915050565b6040518060a00160405280600081526020016000815260200160008152602001600081526020016000151581525090565b600080fd5b6000819050919050565b61126581611252565b811461127057600080fd5b50565b6000813590506112828161125c565b92915050565b6005811061129557600080fd5b50565b6000813590506112a781611288565b92915050565b600080604083850312156112c4576112c361124d565b5b60006112d285828601611273565b92505060206112e385828601611298565b9150509250929050565b6112f681611252565b82525050565b600060208201905061131160008301846112ed565b92915050565b60006020828403121561132d5761132c61124d565b5b600061133b84828501611273565b91505092915050565b60008115159050919050565b61135981611344565b82525050565b600060a08201905061137460008301886112ed565b61138160208301876112ed565b61138e60408301866112ed565b61139b60608301856112ed565b6113a86080830184611350565b9695505050505050565b6000806000606084860312156113cb576113ca61124d565b5b60006113d986828701611273565b93505060206113ea86828701611273565b92505060406113fb86828701611273565b9150509250925092565b600082825260208201905092915050565b7f4e6f207375636820726163650000000000000000000000000000000000000000600082015250565b600061144c600c83611405565b915061145782611416565b602082019050919050565b6000602082019050818103600083015261147b8161143f565b9050919050565b7f4e487b7100000000000000000000000000000000000000000000000000000000600052603260045260246000fd5b7f5261636520616c72656164792073746172746564000000000000000000000000600082015250565b60006114e7601483611405565b91506114f2826114b1565b602082019050919050565b60006020820190508181036000830152611516816114da565b9050919050565b7f4d696e696d756d20626574206973203220524f53450000000000000000000000600082015250565b6000611553601583611405565b915061155e8261151d565b602082019050919050565b6000602082019050818103600083015261158281611546565b9050919050565b7f4e487b7100000000000000000000000000000000000000000000000000000000600052602160045260246000fd5b7f4e487b7100000000000000000000000000000000000000000000000000000000600052601160045260246000fd5b60006115f282611252565b91506115fd83611252565b9250828201905080821115611615576116146115b8565b5b92915050565b6005811061162c5761162b611589565b5b50565b600081905061163d8261161b565b919050565b600061164d8261162f565b9050919050565b61165d81611642565b82525050565b600060608201905061167860008301866112ed565b6116856020830185611654565b61169260408301846112ed565b949350505050565b7f4e6f2066756e647320746f207769746864726177000000000000000000000000600082015250565b60006116d0601483611405565b91506116db8261169a565b602082019050919050565b600060208201905081810360008301526116ff816116c3565b9050919050565b7f496e73756666696369656e7420636f6e74726163742062616c616e6365000000600082015250565b600061173c601d83611405565b915061174782611706565b602082019050919050565b6000602082019050818103600083015261176b8161172f565b9050919050565b600081905092915050565b50565b600061178d600083611772565b91506117988261177d565b600082019050919050565b60006117ae82611780565b9150819050919050565b7f5472616e73666572206661696c65642e00000000000000000000000000000000600082015250565b60006117ee601083611405565b91506117f9826117b8565b602082019050919050565b6000602082019050818103600083015261181d816117e1565b9050919050565b7f54616b656f7574206164647320757020746f206d6f7265207468616e2031303060008201527f2500000000000000000000000000000000000000000000000000000000000000602082015250565b6000611880602183611405565b915061188b82611824565b604082019050919050565b600060208201905081810360008301526118af81611873565b9050919050565b7f506f73742074696d652073686f756c6420626520696e2074686520667574757260008201527f6500000000000000000000000000000000000000000000000000000000000000602082015250565b6000611912602183611405565b915061191d826118b6565b604082019050919050565b6000602082019050818103600083015261194181611905565b9050919050565b600061195382611252565b915061195e83611252565b9250828203905081811115611976576119756115b8565b5b92915050565b7f52616365206861736e2774207374617274656400000000000000000000000000600082015250565b60006119b2601383611405565b91506119bd8261197c565b602082019050919050565b600060208201905081810360008301526119e1816119a5565b9050919050565b7f5261636520726573756c747320616c72656164792064657465726d696e656400600082015250565b6000611a1e601f83611405565b9150611a29826119e8565b602082019050919050565b60006020820190508181036000830152611a4d81611a11565b9050919050565b600060ff82169050919050565b7f4e487b7100000000000000000000000000000000000000000000000000000000600052601260045260246000fd5b6000611a9b82611a54565b9150611aa683611a54565b925082611ab657611ab5611a61565b5b828206905092915050565b6000611acc82611252565b91507fffffffffffffffffffffffffffffffffffffffffffffffffffffffffffffffff8203611afe57611afd6115b8565b5b600182019050919050565b6000611b1482611252565b9150611b1f83611252565b9250828202611b2d81611252565b91508282048414831517611b4457611b436115b8565b5b5092915050565b6000611b5682611252565b9150611b6183611252565b925082611b7157611b70611a61565b5b828204905092915050565b600060059050919050565b600081905092915050565b6000819050919050565b611ba581611a54565b82525050565b6000611bb78383611b9c565b60208301905092915050565b6000602082019050919050565b611bd981611b7c565b611be38184611b87565b9250611bee82611b92565b8060005b83811015611c1f578151611c068782611bab565b9650611c1183611bc3565b925050600181019050611bf2565b505050505050565b600060c082019050611c3c60008301856112ed565b611c496020830184611bd0565b9392505050565b600081519050919050565b600082825260208201905092915050565b60005b83811015611c8a578082015181840152602081019050611c6f565b60008484015250505050565b6000601f19601f8301169050919050565b6000611cb282611c50565b611cbc8185611c5b565b9350611ccc818560208601611c6c565b611cd581611c96565b840191505092915050565b6000604082019050611cf560008301856112ed565b8181036020830152611d078184611ca7565b90509392505050565b6000611d1b82611c50565b611d258185611772565b9350611d35818560208601611c6c565b80840191505092915050565b6000611d4d8284611d10565b915081905092915050565b7f72616e646f6d42797465733a206661696c656400000000000000000000000000600082015250565b6000611d8e601383611405565b9150611d9982611d58565b602082019050919050565b60006020820190508181036000830152611dbd81611d81565b905091905056fea2646970667358221220416322cbbd993bafea1995ff6ea984f9ba3685b5efd8ca9ee603eabb7077859b64736f6c63430008130033",
  "linkReferences": {},
  "deployedLinkReferences": {}
}