{
  "_format": "hh-sol-artifact-1",
  "contractName": "RoseDerby",
  "sourceName": "contracts/RoseDerby.sol",
  "abi": [
    {
      "inputs": [],
      "stateMutability": "nonpayable",
      "type": "constructor"
    },
    {
      "anonymous": false,
      "inputs": [
        {
          "indexed": false,
          "internalType": "uint256",
          "name": "index",
          "type": "uint256"
        },
        {
          "indexed": false,
          "internalType": "enum RoseDerby.Horse",
          "name": "horse",
          "type": "uint8"
        },
        {
          "indexed": false,
          "internalType": "uint256",
          "name": "amount",
          "type": "uint256"
        }
      ],
      "name": "BetPlaced",
      "type": "event"
    },
    {
      "anonymous": false,
      "inputs": [
        {
          "indexed": false,
          "internalType": "uint256",
          "name": "index",
          "type": "uint256"
        },
        {
          "indexed": false,
          "internalType": "uint8[5]",
          "name": "results",
          "type": "uint8[5]"
        }
      ],
      "name": "RaceResultsDetermined",
      "type": "event"
    },
    {
      "anonymous": false,
      "inputs": [
        {
          "indexed": false,
          "internalType": "uint256",
          "name": "index",
          "type": "uint256"
        }
      ],
      "name": "RaceScheduled",
      "type": "event"
    },
    {
      "inputs": [],
      "name": "OWNER_TAKE",
      "outputs": [
        {
          "internalType": "uint256",
          "name": "",
          "type": "uint256"
        }
      ],
      "stateMutability": "view",
      "type": "function"
    },
    {
      "inputs": [
        {
          "internalType": "uint256",
          "name": "index",
          "type": "uint256"
        }
      ],
      "name": "determineResults",
      "outputs": [],
      "stateMutability": "nonpayable",
      "type": "function"
    },
    {
      "inputs": [],
      "name": "getHorseWins",
      "outputs": [
        {
          "internalType": "uint8[5]",
          "name": "",
          "type": "uint8[5]"
        }
      ],
      "stateMutability": "view",
      "type": "function"
    },
    {
      "inputs": [],
      "name": "getRaces",
      "outputs": [
        {
          "components": [
            {
              "internalType": "uint256",
              "name": "take",
              "type": "uint256"
            },
            {
              "internalType": "uint256",
              "name": "callerIncentive",
              "type": "uint256"
            },
            {
              "internalType": "uint256",
              "name": "postTime",
              "type": "uint256"
            },
            {
              "internalType": "uint256",
              "name": "pool",
              "type": "uint256"
            },
            {
              "internalType": "bool",
              "name": "finished",
              "type": "bool"
            },
            {
              "internalType": "uint8",
              "name": "winner",
              "type": "uint8"
            },
            {
              "internalType": "uint8[5]",
              "name": "results",
              "type": "uint8[5]"
            }
          ],
          "internalType": "struct RoseDerby.Race[]",
          "name": "",
          "type": "tuple[]"
        }
      ],
      "stateMutability": "view",
      "type": "function"
    },
    {
      "inputs": [
        {
          "internalType": "uint256",
          "name": "index",
          "type": "uint256"
        }
      ],
      "name": "getResults",
      "outputs": [
        {
          "internalType": "uint8[5]",
          "name": "",
          "type": "uint8[5]"
        }
      ],
      "stateMutability": "view",
      "type": "function"
    },
    {
      "inputs": [],
      "name": "getWinningsBalance",
      "outputs": [
        {
          "internalType": "uint256",
          "name": "",
          "type": "uint256"
        }
      ],
      "stateMutability": "view",
      "type": "function"
    },
    {
      "inputs": [
        {
          "internalType": "uint256",
          "name": "",
          "type": "uint256"
        }
      ],
      "name": "horseWins",
      "outputs": [
        {
          "internalType": "uint8",
          "name": "",
          "type": "uint8"
        }
      ],
      "stateMutability": "view",
      "type": "function"
    },
    {
      "inputs": [
        {
          "internalType": "uint256",
          "name": "index",
          "type": "uint256"
        },
        {
          "internalType": "enum RoseDerby.Horse",
          "name": "horse",
          "type": "uint8"
        }
      ],
      "name": "placeBet",
      "outputs": [],
      "stateMutability": "payable",
      "type": "function"
    },
    {
      "inputs": [
        {
          "internalType": "uint256",
          "name": "",
          "type": "uint256"
        }
      ],
      "name": "races",
      "outputs": [
        {
          "internalType": "uint256",
          "name": "take",
          "type": "uint256"
        },
        {
          "internalType": "uint256",
          "name": "callerIncentive",
          "type": "uint256"
        },
        {
          "internalType": "uint256",
          "name": "postTime",
          "type": "uint256"
        },
        {
          "internalType": "uint256",
          "name": "pool",
          "type": "uint256"
        },
        {
          "internalType": "bool",
          "name": "finished",
          "type": "bool"
        },
        {
          "internalType": "uint8",
          "name": "winner",
          "type": "uint8"
        }
      ],
      "stateMutability": "view",
      "type": "function"
    },
    {
      "inputs": [
        {
          "internalType": "uint256",
          "name": "postTime",
          "type": "uint256"
        },
        {
          "internalType": "uint256",
          "name": "take",
          "type": "uint256"
        },
        {
          "internalType": "uint256",
          "name": "callerIncentive",
          "type": "uint256"
        }
      ],
      "name": "scheduleRace",
      "outputs": [],
      "stateMutability": "nonpayable",
      "type": "function"
    },
    {
      "inputs": [],
      "name": "totalWon",
      "outputs": [
        {
          "internalType": "uint256",
          "name": "",
          "type": "uint256"
        }
      ],
      "stateMutability": "view",
      "type": "function"
    },
    {
      "inputs": [],
      "name": "withdraw",
      "outputs": [],
      "stateMutability": "nonpayable",
      "type": "function"
    }
  ],
  "bytecode": "0x608060405234801561001057600080fd5b50336000806101000a81548173ffffffffffffffffffffffffffffffffffffffff021916908373ffffffffffffffffffffffffffffffffffffffff160217905550612ac8806100606000396000f3fe6080604052600436106100a75760003560e01c80637bbc469e116100645780637bbc469e1461018b57806381a60c0d146101cd5780638cf02d771461020a578063a2872b1514610233578063b3ff277d1461025c578063c977918114610287576100a7565b806303edf914146100ac57806320731dec146100c857806320f9c9b4146100f35780633ccfd60b1461011e5780635f57bc1314610135578063741c0a0f14610160575b600080fd5b6100c660048036038101906100c19190611a05565b6102c4565b005b3480156100d457600080fd5b506100dd610615565b6040516100ea9190611a54565b60405180910390f35b3480156100ff57600080fd5b5061010861061a565b6040516101159190611c90565b60405180910390f35b34801561012a57600080fd5b50610133610744565b005b34801561014157600080fd5b5061014a610903565b6040516101579190611d14565b60405180910390f35b34801561016c57600080fd5b50610175610974565b6040516101829190611a54565b60405180910390f35b34801561019757600080fd5b506101b260048036038101906101ad9190611d2f565b6109bb565b6040516101c496959493929190611d7a565b60405180910390f35b3480156101d957600080fd5b506101f460048036038101906101ef9190611d2f565b610a21565b6040516102019190611d14565b60405180910390f35b34801561021657600080fd5b50610231600480360381019061022c9190611ddb565b610b00565b005b34801561023f57600080fd5b5061025a60048036038101906102559190611d2f565b610d8d565b005b34801561026857600080fd5b50610271611751565b60405161027e9190611a54565b60405180910390f35b34801561029357600080fd5b506102ae60048036038101906102a99190611d2f565b611757565b6040516102bb9190611e2e565b60405180910390f35b81600180549050811061030c576040517f08c379a000000000000000000000000000000000000000000000000000000000815260040161030390611ea6565b60405180910390fd5b600183815481106103205761031f611ec6565b5b906000526020600020906006020160020154421115610374576040517f08c379a000000000000000000000000000000000000000000000000000000000815260040161036b90611f41565b60405180910390fd5b671bc16d674ec800003410156103bf576040517f08c379a00000000000000000000000000000000000000000000000000000000081526004016103b690611fad565b60405180910390fd5b60008260048111156103d4576103d3611fcd565b5b905034600560008681526020019081526020016000208260ff16600581106103ff576103fe611ec6565b5b600202016000016000828254610415919061202b565b925050819055506000600660008681526020019081526020016000208260ff166005811061044657610445611ec6565b5b0160003373ffffffffffffffffffffffffffffffffffffffff1673ffffffffffffffffffffffffffffffffffffffff168152602001908152602001600020540361051b57600560008581526020019081526020016000208160ff16600581106104b2576104b1611ec6565b5b60020201600101339080600181540180825580915050600190039060005260206000200160009091909190916101000a81548173ffffffffffffffffffffffffffffffffffffffff021916908373ffffffffffffffffffffffffffffffffffffffff1602179055505b34600660008681526020019081526020016000208260ff166005811061054457610543611ec6565b5b0160003373ffffffffffffffffffffffffffffffffffffffff1673ffffffffffffffffffffffffffffffffffffffff1681526020019081526020016000206000828254610591919061202b565b9250508190555034600185815481106105ad576105ac611ec6565b5b906000526020600020906006020160030160008282546105cd919061202b565b925050819055507fffa237b01b68a7ca7b44fcf2b5546194ab8003cd7f3e51800b3d78e3cc56633f848434604051610607939291906120a7565b60405180910390a150505050565b600281565b60606001805480602002602001604051908101604052809291908181526020016000905b8282101561073b57838290600052602060002090600602016040518060e0016040529081600082015481526020016001820154815260200160028201548152602001600382015481526020016004820160009054906101000a900460ff161515151581526020016004820160019054906101000a900460ff1660ff1660ff16815260200160058201600580602002604051908101604052809291908260058015610723576020028201916000905b82829054906101000a900460ff1660ff16815260200190600101906020826000010492830192600103820291508084116106ec5790505b5050505050815250508152602001906001019061063e565b50505050905090565b6000600760003373ffffffffffffffffffffffffffffffffffffffff1673ffffffffffffffffffffffffffffffffffffffff168152602001908152602001600020549050600081116107cb576040517f08c379a00000000000000000000000000000000000000000000000000000000081526004016107c29061212a565b60405180910390fd5b8047101561080e576040517f08c379a000000000000000000000000000000000000000000000000000000000815260040161080590612196565b60405180910390fd5b6000600760003373ffffffffffffffffffffffffffffffffffffffff1673ffffffffffffffffffffffffffffffffffffffff1681526020019081526020016000208190555060003373ffffffffffffffffffffffffffffffffffffffff1682604051610879906121e7565b60006040518083038185875af1925050503d80600081146108b6576040519150601f19603f3d011682016040523d82523d6000602084013e6108bb565b606091505b50509050806108ff576040517f08c379a00000000000000000000000000000000000000000000000000000000081526004016108f690612248565b60405180910390fd5b5050565b61090b611884565b600360058060200260405190810160405280929190826005801561096a576020028201916000905b82829054906101000a900460ff1660ff16815260200190600101906020826000010492830192600103820291508084116109335790505b5050505050905090565b6000600760003373ffffffffffffffffffffffffffffffffffffffff1673ffffffffffffffffffffffffffffffffffffffff16815260200190815260200160002054905090565b600181815481106109cb57600080fd5b90600052602060002090600602016000915090508060000154908060010154908060020154908060030154908060040160009054906101000a900460ff16908060040160019054906101000a900460ff16905086565b610a29611884565b816001805490508110610a71576040517f08c379a0000000000000000000000000000000000000000000000000000000008152600401610a6890611ea6565b60405180910390fd5b60018381548110610a8557610a84611ec6565b5b9060005260206000209060060201600501600580602002604051908101604052809291908260058015610af3576020028201916000905b82829054906101000a900460ff1660ff1681526020019060010190602082600001049283019260010382029150808411610abc5790505b5050505050915050919050565b606460028284610b10919061202b565b610b1a919061202b565b1115610b5b576040517f08c379a0000000000000000000000000000000000000000000000000000000008152600401610b52906122da565b60405180910390fd5b824210610b9d576040517f08c379a0000000000000000000000000000000000000000000000000000000008152600401610b949061236c565b60405180910390fd5b610ba56118a6565b82816000018181525050818160200181815250508381604001818152505060018190806001815401808255809150506001900390600052602060002090600602016000909190919091506000820151816000015560208201518160010155604082015181600201556060820151816003015560808201518160040160006101000a81548160ff02191690831515021790555060a08201518160040160016101000a81548160ff021916908360ff16021790555060c082015181600501906005610c6f9291906118ee565b505050600460405180604001604052803373ffffffffffffffffffffffffffffffffffffffff168152602001610cb5600560405180602001604052806000815250611781565b815250908060018154018082558091505060019003906000526020600020906002020160009091909190915060008201518160000160006101000a81548173ffffffffffffffffffffffffffffffffffffffff021916908373ffffffffffffffffffffffffffffffffffffffff1602179055506020820151816001019081610d3d91906125d2565b5050507fd953610f43ff17e3c896e88e0508777c741486ba5556dbaf9c6488a672ab783460018080549050610d7291906126a4565b604051610d7f9190611a54565b60405180910390a150505050565b806001805490508110610dd5576040517f08c379a0000000000000000000000000000000000000000000000000000000008152600401610dcc90611ea6565b60405180910390fd5b600060018381548110610deb57610dea611ec6565b5b90600052602060002090600602016040518060e0016040529081600082015481526020016001820154815260200160028201548152602001600382015481526020016004820160009054906101000a900460ff161515151581526020016004820160019054906101000a900460ff1660ff1660ff16815260200160058201600580602002604051908101604052809291908260058015610ec6576020028201916000905b82829054906101000a900460ff1660ff1681526020019060010190602082600001049283019260010382029150808411610e8f5790505b50505050508152505090508060400151421015610f18576040517f08c379a0000000000000000000000000000000000000000000000000000000008152600401610f0f90612724565b60405180910390fd5b806080015115610f5d576040517f08c379a0000000000000000000000000000000000000000000000000000000008152600401610f5490612790565b60405180910390fd5b600060048481548110610f7357610f72611ec6565b5b90600052602060002090600202016001018054610f8f906123f5565b80601f0160208091040260200160405190810160405280929190818152602001828054610fbb906123f5565b80156110085780601f10610fdd57610100808354040283529160200191611008565b820191906000526020600020905b815481529060010190602001808311610feb57829003601f168201915b5050505050905060006040518060a00160405280600060ff168152602001600160ff168152602001600260ff168152602001600360ff168152602001600460ff16815250905060005b6005811015611123576000600584838151811061107157611070611ec6565b5b602001015160f81c60f81b60f81c61108991906127df565b90506000838260ff16600581106110a3576110a2611ec6565b5b602002015190508383600581106110bd576110bc611ec6565b5b6020020151848360ff16600581106110d8576110d7611ec6565b5b602002019060ff16908160ff1681525050808484600581106110fd576110fc611ec6565b5b602002019060ff16908160ff16815250505050808061111b90612810565b915050611051565b5060008160006005811061113a57611139611ec6565b5b602002015190506000600560008881526020019081526020016000208260ff166005811061116b5761116a611ec6565b5b60020201604051806040016040529081600082015481526020016001820180548060200260200160405190810160405280929190818152602001828054801561120957602002820191906000526020600020905b8160009054906101000a900473ffffffffffffffffffffffffffffffffffffffff1673ffffffffffffffffffffffffffffffffffffffff16815260200190600101908083116111bf575b50505050508152505090506064600286606001516112279190612858565b611231919061289a565b600760008060009054906101000a900473ffffffffffffffffffffffffffffffffffffffff1673ffffffffffffffffffffffffffffffffffffffff1673ffffffffffffffffffffffffffffffffffffffff16815260200190815260200160002060008282546112a0919061202b565b925050819055506064856000015186606001516112bd9190612858565b6112c7919061289a565b6007600060048a815481106112df576112de611ec6565b5b906000526020600020906002020160000160009054906101000a900473ffffffffffffffffffffffffffffffffffffffff1673ffffffffffffffffffffffffffffffffffffffff1673ffffffffffffffffffffffffffffffffffffffff168152602001908152602001600020600082825461135a919061202b565b925050819055506064856020015186606001516113779190612858565b611381919061289a565b600760003373ffffffffffffffffffffffffffffffffffffffff1673ffffffffffffffffffffffffffffffffffffffff16815260200190815260200160002060008282546113cf919061202b565b92505081905550600060648660200151876000015160026113f0919061202b565b6113fa919061202b565b606461140691906126a4565b60018a8154811061141a57611419611ec6565b5b9060005260206000209060060201600301546114369190612858565b611440919061289a565b905060005b8260200151518110156115845760008360200151828151811061146b5761146a611ec6565b5b602002602001015190506000600660008c81526020019081526020016000208660ff166005811061149f5761149e611ec6565b5b0160008373ffffffffffffffffffffffffffffffffffffffff1673ffffffffffffffffffffffffffffffffffffffff1681526020019081526020016000205490506000856000015182866114f39190612858565b6114fd919061289a565b905080600760008573ffffffffffffffffffffffffffffffffffffffff1673ffffffffffffffffffffffffffffffffffffffff168152602001908152602001600020600082825461154e919061202b565b925050819055508060026000828254611567919061202b565b92505081905550505050808061157c90612810565b915050611445565b5060008260200151510361160a5780600760008060009054906101000a900473ffffffffffffffffffffffffffffffffffffffff1673ffffffffffffffffffffffffffffffffffffffff1673ffffffffffffffffffffffffffffffffffffffff1681526020019081526020016000206000828254611602919061202b565b925050819055505b600180898154811061161f5761161e611ec6565b5b906000526020600020906006020160040160006101000a81548160ff021916908315150217905550826001898154811061165c5761165b611ec6565b5b906000526020600020906006020160040160016101000a81548160ff021916908360ff160217905550836001898154811061169a57611699611ec6565b5b90600052602060002090600602016005019060056116b99291906118ee565b50600160038460ff16600581106116d3576116d2611ec6565b5b602091828204019190068282829054906101000a900460ff166116f691906128cb565b92506101000a81548160ff021916908360ff1602179055507f850571c0bc8056ed8a3d8ae710220ad0c7df67810b36fdbd73ccd3dad6718b48888560405161173f929190612900565b60405180910390a15050505050505050565b60025481565b6003816005811061176757600080fd5b60209182820401919006915054906101000a900460ff1681565b606061178d8383611795565b905092915050565b606060008073010000000000000000000000000000000000000173ffffffffffffffffffffffffffffffffffffffff1685856040516020016117d89291906129ae565b6040516020818303038152906040526040516117f49190612a0f565b600060405180830381855afa9150503d806000811461182f576040519150601f19603f3d011682016040523d82523d6000602084013e611834565b606091505b509150915081611879576040517f08c379a000000000000000000000000000000000000000000000000000000000815260040161187090612a72565b60405180910390fd5b809250505092915050565b6040518060a00160405280600590602082028036833780820191505090505090565b6040518060e0016040528060008152602001600081526020016000815260200160008152602001600015158152602001600060ff1681526020016118e8611884565b81525090565b826005601f016020900481019282156119775791602002820160005b8382111561194857835183826101000a81548160ff021916908360ff160217905550926020019260010160208160000104928301926001030261190a565b80156119755782816101000a81549060ff0219169055600101602081600001049283019260010302611948565b505b5090506119849190611988565b5090565b5b808211156119a1576000816000905550600101611989565b5090565b600080fd5b6000819050919050565b6119bd816119aa565b81146119c857600080fd5b50565b6000813590506119da816119b4565b92915050565b600581106119ed57600080fd5b50565b6000813590506119ff816119e0565b92915050565b60008060408385031215611a1c57611a1b6119a5565b5b6000611a2a858286016119cb565b9250506020611a3b858286016119f0565b9150509250929050565b611a4e816119aa565b82525050565b6000602082019050611a696000830184611a45565b92915050565b600081519050919050565b600082825260208201905092915050565b6000819050602082019050919050565b611aa4816119aa565b82525050565b60008115159050919050565b611abf81611aaa565b82525050565b600060ff82169050919050565b611adb81611ac5565b82525050565b600060059050919050565b600081905092915050565b6000819050919050565b6000611b0d8383611ad2565b60208301905092915050565b6000602082019050919050565b611b2f81611ae1565b611b398184611aec565b9250611b4482611af7565b8060005b83811015611b75578151611b5c8782611b01565b9650611b6783611b19565b925050600181019050611b48565b505050505050565b61016082016000820151611b946000850182611a9b565b506020820151611ba76020850182611a9b565b506040820151611bba6040850182611a9b565b506060820151611bcd6060850182611a9b565b506080820151611be06080850182611ab6565b5060a0820151611bf360a0850182611ad2565b5060c0820151611c0660c0850182611b26565b50505050565b6000611c188383611b7d565b6101608301905092915050565b6000602082019050919050565b6000611c3d82611a6f565b611c478185611a7a565b9350611c5283611a8b565b8060005b83811015611c83578151611c6a8882611c0c565b9750611c7583611c25565b925050600181019050611c56565b5085935050505092915050565b60006020820190508181036000830152611caa8184611c32565b905092915050565b600081905092915050565b611cc681611ae1565b611cd08184611cb2565b9250611cdb82611af7565b8060005b83811015611d0c578151611cf38782611b01565b9650611cfe83611b19565b925050600181019050611cdf565b505050505050565b600060a082019050611d296000830184611cbd565b92915050565b600060208284031215611d4557611d446119a5565b5b6000611d53848285016119cb565b91505092915050565b611d6581611aaa565b82525050565b611d7481611ac5565b82525050565b600060c082019050611d8f6000830189611a45565b611d9c6020830188611a45565b611da96040830187611a45565b611db66060830186611a45565b611dc36080830185611d5c565b611dd060a0830184611d6b565b979650505050505050565b600080600060608486031215611df457611df36119a5565b5b6000611e02868287016119cb565b9350506020611e13868287016119cb565b9250506040611e24868287016119cb565b9150509250925092565b6000602082019050611e436000830184611d6b565b92915050565b600082825260208201905092915050565b7f4e6f207375636820726163650000000000000000000000000000000000000000600082015250565b6000611e90600c83611e49565b9150611e9b82611e5a565b602082019050919050565b60006020820190508181036000830152611ebf81611e83565b9050919050565b7f4e487b7100000000000000000000000000000000000000000000000000000000600052603260045260246000fd5b7f5261636520616c72656164792073746172746564000000000000000000000000600082015250565b6000611f2b601483611e49565b9150611f3682611ef5565b602082019050919050565b60006020820190508181036000830152611f5a81611f1e565b9050919050565b7f4d696e696d756d20626574206973203220524f53450000000000000000000000600082015250565b6000611f97601583611e49565b9150611fa282611f61565b602082019050919050565b60006020820190508181036000830152611fc681611f8a565b9050919050565b7f4e487b7100000000000000000000000000000000000000000000000000000000600052602160045260246000fd5b7f4e487b7100000000000000000000000000000000000000000000000000000000600052601160045260246000fd5b6000612036826119aa565b9150612041836119aa565b925082820190508082111561205957612058611ffc565b5b92915050565b600581106120705761206f611fcd565b5b50565b60008190506120818261205f565b919050565b600061209182612073565b9050919050565b6120a181612086565b82525050565b60006060820190506120bc6000830186611a45565b6120c96020830185612098565b6120d66040830184611a45565b949350505050565b7f4e6f2066756e647320746f207769746864726177000000000000000000000000600082015250565b6000612114601483611e49565b915061211f826120de565b602082019050919050565b6000602082019050818103600083015261214381612107565b9050919050565b7f496e73756666696369656e7420636f6e74726163742062616c616e6365000000600082015250565b6000612180601d83611e49565b915061218b8261214a565b602082019050919050565b600060208201905081810360008301526121af81612173565b9050919050565b600081905092915050565b50565b60006121d16000836121b6565b91506121dc826121c1565b600082019050919050565b60006121f2826121c4565b9150819050919050565b7f5472616e73666572206661696c65642e00000000000000000000000000000000600082015250565b6000612232601083611e49565b915061223d826121fc565b602082019050919050565b6000602082019050818103600083015261226181612225565b9050919050565b7f54616b656f7574206164647320757020746f206d6f7265207468616e2031303060008201527f2500000000000000000000000000000000000000000000000000000000000000602082015250565b60006122c4602183611e49565b91506122cf82612268565b604082019050919050565b600060208201905081810360008301526122f3816122b7565b9050919050565b7f506f73742074696d652073686f756c6420626520696e2074686520667574757260008201527f6500000000000000000000000000000000000000000000000000000000000000602082015250565b6000612356602183611e49565b9150612361826122fa565b604082019050919050565b6000602082019050818103600083015261238581612349565b9050919050565b600081519050919050565b7f4e487b7100000000000000000000000000000000000000000000000000000000600052604160045260246000fd5b7f4e487b7100000000000000000000000000000000000000000000000000000000600052602260045260246000fd5b6000600282049050600182168061240d57607f821691505b6020821081036124205761241f6123c6565b5b50919050565b60008190508160005260206000209050919050565b60006020601f8301049050919050565b600082821b905092915050565b6000600883026124887fffffffffffffffffffffffffffffffffffffffffffffffffffffffffffffffff8261244b565b612492868361244b565b95508019841693508086168417925050509392505050565b6000819050919050565b60006124cf6124ca6124c5846119aa565b6124aa565b6119aa565b9050919050565b6000819050919050565b6124e9836124b4565b6124fd6124f5826124d6565b848454612458565b825550505050565b600090565b612512612505565b61251d8184846124e0565b505050565b5b818110156125415761253660008261250a565b600181019050612523565b5050565b601f8211156125865761255781612426565b6125608461243b565b8101602085101561256f578190505b61258361257b8561243b565b830182612522565b50505b505050565b600082821c905092915050565b60006125a96000198460080261258b565b1980831691505092915050565b60006125c28383612598565b9150826002028217905092915050565b6125db8261238c565b67ffffffffffffffff8111156125f4576125f3612397565b5b6125fe82546123f5565b612609828285612545565b600060209050601f83116001811461263c576000841561262a578287015190505b61263485826125b6565b86555061269c565b601f19841661264a86612426565b60005b828110156126725784890151825560018201915060208501945060208101905061264d565b8683101561268f578489015161268b601f891682612598565b8355505b6001600288020188555050505b505050505050565b60006126af826119aa565b91506126ba836119aa565b92508282039050818111156126d2576126d1611ffc565b5b92915050565b7f52616365206861736e2774207374617274656400000000000000000000000000600082015250565b600061270e601383611e49565b9150612719826126d8565b602082019050919050565b6000602082019050818103600083015261273d81612701565b9050919050565b7f5261636520726573756c747320616c72656164792064657465726d696e656400600082015250565b600061277a601f83611e49565b915061278582612744565b602082019050919050565b600060208201905081810360008301526127a98161276d565b9050919050565b7f4e487b7100000000000000000000000000000000000000000000000000000000600052601260045260246000fd5b60006127ea82611ac5565b91506127f583611ac5565b925082612805576128046127b0565b5b828206905092915050565b600061281b826119aa565b91507fffffffffffffffffffffffffffffffffffffffffffffffffffffffffffffffff820361284d5761284c611ffc565b5b600182019050919050565b6000612863826119aa565b915061286e836119aa565b925082820261287c816119aa565b9150828204841483151761289357612892611ffc565b5b5092915050565b60006128a5826119aa565b91506128b0836119aa565b9250826128c0576128bf6127b0565b5b828204905092915050565b60006128d682611ac5565b91506128e183611ac5565b9250828201905060ff8111156128fa576128f9611ffc565b5b92915050565b600060c0820190506129156000830185611a45565b6129226020830184611cbd565b9392505050565b600082825260208201905092915050565b60005b8381101561295857808201518184015260208101905061293d565b60008484015250505050565b6000601f19601f8301169050919050565b60006129808261238c565b61298a8185612929565b935061299a81856020860161293a565b6129a381612964565b840191505092915050565b60006040820190506129c36000830185611a45565b81810360208301526129d58184612975565b90509392505050565b60006129e98261238c565b6129f381856121b6565b9350612a0381856020860161293a565b80840191505092915050565b6000612a1b82846129de565b915081905092915050565b7f72616e646f6d42797465733a206661696c656400000000000000000000000000600082015250565b6000612a5c601383611e49565b9150612a6782612a26565b602082019050919050565b60006020820190508181036000830152612a8b81612a4f565b905091905056fea26469706673582212208c003f006fcba4a74c0fc70f232feb502883302440b8f8c28be517894a6f90c964736f6c63430008130033",
  "linkReferences": {},
  "deployedLinkReferences": {}
}