{
  "_format": "hh-sol-artifact-1",
  "contractName": "RoseDerby",
  "sourceName": "contracts/RoseDerby.sol",
  "abi": [
    {
      "inputs": [],
      "stateMutability": "nonpayable",
      "type": "constructor"
    },
    {
      "anonymous": false,
      "inputs": [
        {
          "indexed": false,
          "internalType": "uint256",
          "name": "index",
          "type": "uint256"
        },
        {
          "indexed": false,
          "internalType": "enum RoseDerby.Horse",
          "name": "horse",
          "type": "uint8"
        },
        {
          "indexed": false,
          "internalType": "uint256",
          "name": "amount",
          "type": "uint256"
        }
      ],
      "name": "BetPlaced",
      "type": "event"
    },
    {
      "anonymous": false,
      "inputs": [
        {
          "indexed": false,
          "internalType": "uint256",
          "name": "index",
          "type": "uint256"
        },
        {
          "indexed": false,
          "internalType": "uint8[5]",
          "name": "results",
          "type": "uint8[5]"
        }
      ],
      "name": "RaceResultsDetermined",
      "type": "event"
    },
    {
      "anonymous": false,
      "inputs": [
        {
          "indexed": false,
          "internalType": "uint256",
          "name": "index",
          "type": "uint256"
        }
      ],
      "name": "RaceScheduled",
      "type": "event"
    },
    {
      "inputs": [],
      "name": "OWNER_TAKE",
      "outputs": [
        {
          "internalType": "uint256",
          "name": "",
          "type": "uint256"
        }
      ],
      "stateMutability": "view",
      "type": "function"
    },
    {
      "inputs": [
        {
          "internalType": "uint256",
          "name": "index",
          "type": "uint256"
        }
      ],
      "name": "determineResults",
      "outputs": [],
      "stateMutability": "nonpayable",
      "type": "function"
    },
    {
      "inputs": [],
      "name": "getHorseWins",
      "outputs": [
        {
          "internalType": "uint8[5]",
          "name": "",
          "type": "uint8[5]"
        }
      ],
      "stateMutability": "view",
      "type": "function"
    },
    {
      "inputs": [],
      "name": "getRaces",
      "outputs": [
        {
          "components": [
            {
              "internalType": "uint256",
              "name": "take",
              "type": "uint256"
            },
            {
              "internalType": "uint256",
              "name": "callerIncentive",
              "type": "uint256"
            },
            {
              "internalType": "uint256",
              "name": "postTime",
              "type": "uint256"
            },
            {
              "internalType": "uint256",
              "name": "pool",
              "type": "uint256"
            },
            {
              "internalType": "bool",
              "name": "finished",
              "type": "bool"
            },
            {
              "internalType": "uint8[5]",
              "name": "results",
              "type": "uint8[5]"
            }
          ],
          "internalType": "struct RoseDerby.Race[]",
          "name": "",
          "type": "tuple[]"
        }
      ],
      "stateMutability": "view",
      "type": "function"
    },
    {
      "inputs": [
        {
          "internalType": "uint256",
          "name": "index",
          "type": "uint256"
        }
      ],
      "name": "getResults",
      "outputs": [
        {
          "internalType": "uint8[5]",
          "name": "",
          "type": "uint8[5]"
        }
      ],
      "stateMutability": "view",
      "type": "function"
    },
    {
      "inputs": [],
      "name": "getWinningsBalance",
      "outputs": [
        {
          "internalType": "uint256",
          "name": "",
          "type": "uint256"
        }
      ],
      "stateMutability": "view",
      "type": "function"
    },
    {
      "inputs": [
        {
          "internalType": "uint256",
          "name": "",
          "type": "uint256"
        }
      ],
      "name": "horseWins",
      "outputs": [
        {
          "internalType": "uint8",
          "name": "",
          "type": "uint8"
        }
      ],
      "stateMutability": "view",
      "type": "function"
    },
    {
      "inputs": [
        {
          "internalType": "uint256",
          "name": "index",
          "type": "uint256"
        },
        {
          "internalType": "enum RoseDerby.Horse",
          "name": "horse",
          "type": "uint8"
        }
      ],
      "name": "placeBet",
      "outputs": [],
      "stateMutability": "payable",
      "type": "function"
    },
    {
      "inputs": [
        {
          "internalType": "uint256",
          "name": "",
          "type": "uint256"
        }
      ],
      "name": "races",
      "outputs": [
        {
          "internalType": "uint256",
          "name": "take",
          "type": "uint256"
        },
        {
          "internalType": "uint256",
          "name": "callerIncentive",
          "type": "uint256"
        },
        {
          "internalType": "uint256",
          "name": "postTime",
          "type": "uint256"
        },
        {
          "internalType": "uint256",
          "name": "pool",
          "type": "uint256"
        },
        {
          "internalType": "bool",
          "name": "finished",
          "type": "bool"
        }
      ],
      "stateMutability": "view",
      "type": "function"
    },
    {
      "inputs": [
        {
          "internalType": "uint256",
          "name": "postTime",
          "type": "uint256"
        },
        {
          "internalType": "uint256",
          "name": "take",
          "type": "uint256"
        },
        {
          "internalType": "uint256",
          "name": "callerIncentive",
          "type": "uint256"
        }
      ],
      "name": "scheduleRace",
      "outputs": [],
      "stateMutability": "nonpayable",
      "type": "function"
    },
    {
      "inputs": [],
      "name": "totalWon",
      "outputs": [
        {
          "internalType": "uint256",
          "name": "",
          "type": "uint256"
        }
      ],
      "stateMutability": "view",
      "type": "function"
    },
    {
      "inputs": [],
      "name": "withdraw",
      "outputs": [],
      "stateMutability": "nonpayable",
      "type": "function"
    }
  ],
  "bytecode": "0x608060405234801561001057600080fd5b50336000806101000a81548173ffffffffffffffffffffffffffffffffffffffff021916908373ffffffffffffffffffffffffffffffffffffffff160217905550612612806100606000396000f3fe6080604052600436106100a75760003560e01c80637bbc469e116100645780637bbc469e1461018b57806381a60c0d146101cc5780638cf02d7714610209578063a2872b1514610232578063b3ff277d1461025b578063c977918114610286576100a7565b806303edf914146100ac57806320731dec146100c857806320f9c9b4146100f35780633ccfd60b1461011e5780635f57bc1314610135578063741c0a0f14610160575b600080fd5b6100c660048036038101906100c1919061187d565b6102c3565b005b3480156100d457600080fd5b506100dd610614565b6040516100ea91906118cc565b60405180910390f35b3480156100ff57600080fd5b50610108610619565b6040516101159190611af5565b60405180910390f35b34801561012a57600080fd5b50610133610726565b005b34801561014157600080fd5b5061014a6108e5565b6040516101579190611b79565b60405180910390f35b34801561016c57600080fd5b50610175610956565b60405161018291906118cc565b60405180910390f35b34801561019757600080fd5b506101b260048036038101906101ad9190611b94565b61099d565b6040516101c3959493929190611bd0565b60405180910390f35b3480156101d857600080fd5b506101f360048036038101906101ee9190611b94565b6109f0565b6040516102009190611b79565b60405180910390f35b34801561021557600080fd5b50610230600480360381019061022b9190611c23565b610acf565b005b34801561023e57600080fd5b5061025960048036038101906102549190611b94565b610d02565b005b34801561026757600080fd5b506102706115d3565b60405161027d91906118cc565b60405180910390f35b34801561029257600080fd5b506102ad60048036038101906102a89190611b94565b6115d9565b6040516102ba9190611c85565b60405180910390f35b81600180549050811061030b576040517f08c379a000000000000000000000000000000000000000000000000000000000815260040161030290611cfd565b60405180910390fd5b6001838154811061031f5761031e611d1d565b5b906000526020600020906006020160020154421115610373576040517f08c379a000000000000000000000000000000000000000000000000000000000815260040161036a90611d98565b60405180910390fd5b671bc16d674ec800003410156103be576040517f08c379a00000000000000000000000000000000000000000000000000000000081526004016103b590611e04565b60405180910390fd5b60008260048111156103d3576103d2611e24565b5b905034600560008681526020019081526020016000208260ff16600581106103fe576103fd611d1d565b5b6002020160000160008282546104149190611e82565b925050819055506000600660008681526020019081526020016000208260ff166005811061044557610444611d1d565b5b0160003373ffffffffffffffffffffffffffffffffffffffff1673ffffffffffffffffffffffffffffffffffffffff168152602001908152602001600020540361051a57600560008581526020019081526020016000208160ff16600581106104b1576104b0611d1d565b5b60020201600101339080600181540180825580915050600190039060005260206000200160009091909190916101000a81548173ffffffffffffffffffffffffffffffffffffffff021916908373ffffffffffffffffffffffffffffffffffffffff1602179055505b34600660008681526020019081526020016000208260ff166005811061054357610542611d1d565b5b0160003373ffffffffffffffffffffffffffffffffffffffff1673ffffffffffffffffffffffffffffffffffffffff16815260200190815260200160002060008282546105909190611e82565b9250508190555034600185815481106105ac576105ab611d1d565b5b906000526020600020906006020160030160008282546105cc9190611e82565b925050819055507fffa237b01b68a7ca7b44fcf2b5546194ab8003cd7f3e51800b3d78e3cc56633f84843460405161060693929190611efe565b60405180910390a150505050565b600281565b60606001805480602002602001604051908101604052809291908181526020016000905b8282101561071d57838290600052602060002090600602016040518060c0016040529081600082015481526020016001820154815260200160028201548152602001600382015481526020016004820160009054906101000a900460ff1615151515815260200160058201600580602002604051908101604052809291908260058015610705576020028201916000905b82829054906101000a900460ff1660ff16815260200190600101906020826000010492830192600103820291508084116106ce5790505b5050505050815250508152602001906001019061063d565b50505050905090565b6000600760003373ffffffffffffffffffffffffffffffffffffffff1673ffffffffffffffffffffffffffffffffffffffff168152602001908152602001600020549050600081116107ad576040517f08c379a00000000000000000000000000000000000000000000000000000000081526004016107a490611f81565b60405180910390fd5b804710156107f0576040517f08c379a00000000000000000000000000000000000000000000000000000000081526004016107e790611fed565b60405180910390fd5b6000600760003373ffffffffffffffffffffffffffffffffffffffff1673ffffffffffffffffffffffffffffffffffffffff1681526020019081526020016000208190555060003373ffffffffffffffffffffffffffffffffffffffff168260405161085b9061203e565b60006040518083038185875af1925050503d8060008114610898576040519150601f19603f3d011682016040523d82523d6000602084013e61089d565b606091505b50509050806108e1576040517f08c379a00000000000000000000000000000000000000000000000000000000081526004016108d89061209f565b60405180910390fd5b5050565b6108ed611706565b600360058060200260405190810160405280929190826005801561094c576020028201916000905b82829054906101000a900460ff1660ff16815260200190600101906020826000010492830192600103820291508084116109155790505b5050505050905090565b6000600760003373ffffffffffffffffffffffffffffffffffffffff1673ffffffffffffffffffffffffffffffffffffffff16815260200190815260200160002054905090565b600181815481106109ad57600080fd5b90600052602060002090600602016000915090508060000154908060010154908060020154908060030154908060040160009054906101000a900460ff16905085565b6109f8611706565b816001805490508110610a40576040517f08c379a0000000000000000000000000000000000000000000000000000000008152600401610a3790611cfd565b60405180910390fd5b60018381548110610a5457610a53611d1d565b5b9060005260206000209060060201600501600580602002604051908101604052809291908260058015610ac2576020028201916000905b82829054906101000a900460ff1660ff1681526020019060010190602082600001049283019260010382029150808411610a8b5790505b5050505050915050919050565b606460028284610adf9190611e82565b610ae99190611e82565b1115610b2a576040517f08c379a0000000000000000000000000000000000000000000000000000000008152600401610b2190612131565b60405180910390fd5b824210610b6c576040517f08c379a0000000000000000000000000000000000000000000000000000000008152600401610b63906121c3565b60405180910390fd5b610b74611728565b82816000018181525050818160200181815250508381604001818152505060018190806001815401808255809150506001900390600052602060002090600602016000909190919091506000820151816000015560208201518160010155604082015181600201556060820151816003015560808201518160040160006101000a81548160ff02191690831515021790555060a082015181600501906005610c1d929190611766565b505050600460405180602001604052803373ffffffffffffffffffffffffffffffffffffffff168152509080600181540180825580915050600190039060005260206000200160009091909190915060008201518160000160006101000a81548173ffffffffffffffffffffffffffffffffffffffff021916908373ffffffffffffffffffffffffffffffffffffffff16021790555050507fd953610f43ff17e3c896e88e0508777c741486ba5556dbaf9c6488a672ab783460018080549050610ce791906121e3565b604051610cf491906118cc565b60405180910390a150505050565b806001805490508110610d4a576040517f08c379a0000000000000000000000000000000000000000000000000000000008152600401610d4190611cfd565b60405180910390fd5b600060018381548110610d6057610d5f611d1d565b5b90600052602060002090600602016040518060c0016040529081600082015481526020016001820154815260200160028201548152602001600382015481526020016004820160009054906101000a900460ff1615151515815260200160058201600580602002604051908101604052809291908260058015610e1e576020028201916000905b82829054906101000a900460ff1660ff1681526020019060010190602082600001049283019260010382029150808411610de75790505b50505050508152505090508060400151421015610e70576040517f08c379a0000000000000000000000000000000000000000000000000000000008152600401610e6790612263565b60405180910390fd5b806080015115610eb5576040517f08c379a0000000000000000000000000000000000000000000000000000000008152600401610eac906122cf565b60405180910390fd5b6000610ed1600560405180602001604052806000815250611603565b905060006040518060a00160405280600060ff168152602001600160ff168152602001600260ff168152602001600360ff168152602001600460ff16815250905060005b6005811015610fe75760006005848381518110610f3557610f34611d1d565b5b602001015160f81c60f81b60f81c610f4d919061231e565b90506000838260ff1660058110610f6757610f66611d1d565b5b60200201519050838360058110610f8157610f80611d1d565b5b6020020151848360ff1660058110610f9c57610f9b611d1d565b5b602002019060ff16908160ff168152505080848460058110610fc157610fc0611d1d565b5b602002019060ff16908160ff168152505050508080610fdf9061234f565b915050610f15565b50600081600060058110610ffe57610ffd611d1d565b5b602002015190506000600560008881526020019081526020016000208260ff166005811061102f5761102e611d1d565b5b6002020160405180604001604052908160008201548152602001600182018054806020026020016040519081016040528092919081815260200182805480156110cd57602002820191906000526020600020905b8160009054906101000a900473ffffffffffffffffffffffffffffffffffffffff1673ffffffffffffffffffffffffffffffffffffffff1681526020019060010190808311611083575b50505050508152505090506064600286606001516110eb9190612397565b6110f591906123d9565b600760008060009054906101000a900473ffffffffffffffffffffffffffffffffffffffff1673ffffffffffffffffffffffffffffffffffffffff1673ffffffffffffffffffffffffffffffffffffffff16815260200190815260200160002060008282546111649190611e82565b925050819055506064856000015186606001516111819190612397565b61118b91906123d9565b6007600060048a815481106111a3576111a2611d1d565b5b9060005260206000200160000160009054906101000a900473ffffffffffffffffffffffffffffffffffffffff1673ffffffffffffffffffffffffffffffffffffffff1673ffffffffffffffffffffffffffffffffffffffff168152602001908152602001600020600082825461121a9190611e82565b925050819055506064856020015186606001516112379190612397565b61124191906123d9565b600760003373ffffffffffffffffffffffffffffffffffffffff1673ffffffffffffffffffffffffffffffffffffffff168152602001908152602001600020600082825461128f9190611e82565b92505081905550600060648660200151876000015160026112b09190611e82565b6112ba9190611e82565b60646112c691906121e3565b60018a815481106112da576112d9611d1d565b5b9060005260206000209060060201600301546112f69190612397565b61130091906123d9565b905060005b8260200151518110156114445760008360200151828151811061132b5761132a611d1d565b5b602002602001015190506000600660008c81526020019081526020016000208660ff166005811061135f5761135e611d1d565b5b0160008373ffffffffffffffffffffffffffffffffffffffff1673ffffffffffffffffffffffffffffffffffffffff1681526020019081526020016000205490506000856000015182866113b39190612397565b6113bd91906123d9565b905080600760008573ffffffffffffffffffffffffffffffffffffffff1673ffffffffffffffffffffffffffffffffffffffff168152602001908152602001600020600082825461140e9190611e82565b9250508190555080600260008282546114279190611e82565b92505081905550505050808061143c9061234f565b915050611305565b506000826020015151036114ca5780600760008060009054906101000a900473ffffffffffffffffffffffffffffffffffffffff1673ffffffffffffffffffffffffffffffffffffffff1673ffffffffffffffffffffffffffffffffffffffff16815260200190815260200160002060008282546114c29190611e82565b925050819055505b60018089815481106114df576114de611d1d565b5b906000526020600020906006020160040160006101000a81548160ff021916908315150217905550836001898154811061151c5761151b611d1d565b5b906000526020600020906006020160050190600561153b929190611766565b50600160038460ff166005811061155557611554611d1d565b5b602091828204019190068282829054906101000a900460ff16611578919061240a565b92506101000a81548160ff021916908360ff1602179055507f850571c0bc8056ed8a3d8ae710220ad0c7df67810b36fdbd73ccd3dad6718b4888856040516115c192919061243f565b60405180910390a15050505050505050565b60025481565b600381600581106115e957600080fd5b60209182820401919006915054906101000a900460ff1681565b606061160f8383611617565b905092915050565b606060008073010000000000000000000000000000000000000173ffffffffffffffffffffffffffffffffffffffff16858560405160200161165a9291906124f8565b6040516020818303038152906040526040516116769190612559565b600060405180830381855afa9150503d80600081146116b1576040519150601f19603f3d011682016040523d82523d6000602084013e6116b6565b606091505b5091509150816116fb576040517f08c379a00000000000000000000000000000000000000000000000000000000081526004016116f2906125bc565b60405180910390fd5b809250505092915050565b6040518060a00160405280600590602082028036833780820191505090505090565b6040518060c0016040528060008152602001600081526020016000815260200160008152602001600015158152602001611760611706565b81525090565b826005601f016020900481019282156117ef5791602002820160005b838211156117c057835183826101000a81548160ff021916908360ff1602179055509260200192600101602081600001049283019260010302611782565b80156117ed5782816101000a81549060ff02191690556001016020816000010492830192600103026117c0565b505b5090506117fc9190611800565b5090565b5b80821115611819576000816000905550600101611801565b5090565b600080fd5b6000819050919050565b61183581611822565b811461184057600080fd5b50565b6000813590506118528161182c565b92915050565b6005811061186557600080fd5b50565b60008135905061187781611858565b92915050565b600080604083850312156118945761189361181d565b5b60006118a285828601611843565b92505060206118b385828601611868565b9150509250929050565b6118c681611822565b82525050565b60006020820190506118e160008301846118bd565b92915050565b600081519050919050565b600082825260208201905092915050565b6000819050602082019050919050565b61191c81611822565b82525050565b60008115159050919050565b61193781611922565b82525050565b600060059050919050565b600081905092915050565b6000819050919050565b600060ff82169050919050565b6119738161195d565b82525050565b6000611985838361196a565b60208301905092915050565b6000602082019050919050565b6119a78161193d565b6119b18184611948565b92506119bc82611953565b8060005b838110156119ed5781516119d48782611979565b96506119df83611991565b9250506001810190506119c0565b505050505050565b61014082016000820151611a0c6000850182611913565b506020820151611a1f6020850182611913565b506040820151611a326040850182611913565b506060820151611a456060850182611913565b506080820151611a58608085018261192e565b5060a0820151611a6b60a085018261199e565b50505050565b6000611a7d83836119f5565b6101408301905092915050565b6000602082019050919050565b6000611aa2826118e7565b611aac81856118f2565b9350611ab783611903565b8060005b83811015611ae8578151611acf8882611a71565b9750611ada83611a8a565b925050600181019050611abb565b5085935050505092915050565b60006020820190508181036000830152611b0f8184611a97565b905092915050565b600081905092915050565b611b2b8161193d565b611b358184611b17565b9250611b4082611953565b8060005b83811015611b71578151611b588782611979565b9650611b6383611991565b925050600181019050611b44565b505050505050565b600060a082019050611b8e6000830184611b22565b92915050565b600060208284031215611baa57611ba961181d565b5b6000611bb884828501611843565b91505092915050565b611bca81611922565b82525050565b600060a082019050611be560008301886118bd565b611bf260208301876118bd565b611bff60408301866118bd565b611c0c60608301856118bd565b611c196080830184611bc1565b9695505050505050565b600080600060608486031215611c3c57611c3b61181d565b5b6000611c4a86828701611843565b9350506020611c5b86828701611843565b9250506040611c6c86828701611843565b9150509250925092565b611c7f8161195d565b82525050565b6000602082019050611c9a6000830184611c76565b92915050565b600082825260208201905092915050565b7f4e6f207375636820726163650000000000000000000000000000000000000000600082015250565b6000611ce7600c83611ca0565b9150611cf282611cb1565b602082019050919050565b60006020820190508181036000830152611d1681611cda565b9050919050565b7f4e487b7100000000000000000000000000000000000000000000000000000000600052603260045260246000fd5b7f5261636520616c72656164792073746172746564000000000000000000000000600082015250565b6000611d82601483611ca0565b9150611d8d82611d4c565b602082019050919050565b60006020820190508181036000830152611db181611d75565b9050919050565b7f4d696e696d756d20626574206973203220524f53450000000000000000000000600082015250565b6000611dee601583611ca0565b9150611df982611db8565b602082019050919050565b60006020820190508181036000830152611e1d81611de1565b9050919050565b7f4e487b7100000000000000000000000000000000000000000000000000000000600052602160045260246000fd5b7f4e487b7100000000000000000000000000000000000000000000000000000000600052601160045260246000fd5b6000611e8d82611822565b9150611e9883611822565b9250828201905080821115611eb057611eaf611e53565b5b92915050565b60058110611ec757611ec6611e24565b5b50565b6000819050611ed882611eb6565b919050565b6000611ee882611eca565b9050919050565b611ef881611edd565b82525050565b6000606082019050611f1360008301866118bd565b611f206020830185611eef565b611f2d60408301846118bd565b949350505050565b7f4e6f2066756e647320746f207769746864726177000000000000000000000000600082015250565b6000611f6b601483611ca0565b9150611f7682611f35565b602082019050919050565b60006020820190508181036000830152611f9a81611f5e565b9050919050565b7f496e73756666696369656e7420636f6e74726163742062616c616e6365000000600082015250565b6000611fd7601d83611ca0565b9150611fe282611fa1565b602082019050919050565b6000602082019050818103600083015261200681611fca565b9050919050565b600081905092915050565b50565b600061202860008361200d565b915061203382612018565b600082019050919050565b60006120498261201b565b9150819050919050565b7f5472616e73666572206661696c65642e00000000000000000000000000000000600082015250565b6000612089601083611ca0565b915061209482612053565b602082019050919050565b600060208201905081810360008301526120b88161207c565b9050919050565b7f54616b656f7574206164647320757020746f206d6f7265207468616e2031303060008201527f2500000000000000000000000000000000000000000000000000000000000000602082015250565b600061211b602183611ca0565b9150612126826120bf565b604082019050919050565b6000602082019050818103600083015261214a8161210e565b9050919050565b7f506f73742074696d652073686f756c6420626520696e2074686520667574757260008201527f6500000000000000000000000000000000000000000000000000000000000000602082015250565b60006121ad602183611ca0565b91506121b882612151565b604082019050919050565b600060208201905081810360008301526121dc816121a0565b9050919050565b60006121ee82611822565b91506121f983611822565b925082820390508181111561221157612210611e53565b5b92915050565b7f52616365206861736e2774207374617274656400000000000000000000000000600082015250565b600061224d601383611ca0565b915061225882612217565b602082019050919050565b6000602082019050818103600083015261227c81612240565b9050919050565b7f5261636520726573756c747320616c72656164792064657465726d696e656400600082015250565b60006122b9601f83611ca0565b91506122c482612283565b602082019050919050565b600060208201905081810360008301526122e8816122ac565b9050919050565b7f4e487b7100000000000000000000000000000000000000000000000000000000600052601260045260246000fd5b60006123298261195d565b91506123348361195d565b925082612344576123436122ef565b5b828206905092915050565b600061235a82611822565b91507fffffffffffffffffffffffffffffffffffffffffffffffffffffffffffffffff820361238c5761238b611e53565b5b600182019050919050565b60006123a282611822565b91506123ad83611822565b92508282026123bb81611822565b915082820484148315176123d2576123d1611e53565b5b5092915050565b60006123e482611822565b91506123ef83611822565b9250826123ff576123fe6122ef565b5b828204905092915050565b60006124158261195d565b91506124208361195d565b9250828201905060ff81111561243957612438611e53565b5b92915050565b600060c08201905061245460008301856118bd565b6124616020830184611b22565b9392505050565b600081519050919050565b600082825260208201905092915050565b60005b838110156124a2578082015181840152602081019050612487565b60008484015250505050565b6000601f19601f8301169050919050565b60006124ca82612468565b6124d48185612473565b93506124e4818560208601612484565b6124ed816124ae565b840191505092915050565b600060408201905061250d60008301856118bd565b818103602083015261251f81846124bf565b90509392505050565b600061253382612468565b61253d818561200d565b935061254d818560208601612484565b80840191505092915050565b60006125658284612528565b915081905092915050565b7f72616e646f6d42797465733a206661696c656400000000000000000000000000600082015250565b60006125a6601383611ca0565b91506125b182612570565b602082019050919050565b600060208201905081810360008301526125d581612599565b905091905056fea26469706673582212204d897e39f5f6faed516f26cb43442e4c5a31849eb25b5107971c3e61aad8fabc64736f6c63430008130033",
  "linkReferences": {},
  "deployedLinkReferences": {}
}