{
  "_format": "hh-sol-artifact-1",
  "contractName": "RoseDerby",
  "sourceName": "contracts/RoseDerby.sol",
  "abi": [
    {
      "inputs": [],
      "stateMutability": "nonpayable",
      "type": "constructor"
    },
    {
      "anonymous": false,
      "inputs": [
        {
          "indexed": false,
          "internalType": "uint256",
          "name": "index",
          "type": "uint256"
        },
        {
          "indexed": false,
          "internalType": "enum RoseDerby.Horse",
          "name": "horse",
          "type": "uint8"
        },
        {
          "indexed": false,
          "internalType": "uint256",
          "name": "amount",
          "type": "uint256"
        }
      ],
      "name": "BetPlaced",
      "type": "event"
    },
    {
      "anonymous": false,
      "inputs": [
        {
          "indexed": false,
          "internalType": "uint256",
          "name": "index",
          "type": "uint256"
        },
        {
          "indexed": false,
          "internalType": "uint8[5]",
          "name": "results",
          "type": "uint8[5]"
        }
      ],
      "name": "RaceResultsDetermined",
      "type": "event"
    },
    {
      "anonymous": false,
      "inputs": [
        {
          "indexed": false,
          "internalType": "uint256",
          "name": "index",
          "type": "uint256"
        }
      ],
      "name": "RaceScheduled",
      "type": "event"
    },
    {
      "inputs": [],
      "name": "OWNER_TAKE",
      "outputs": [
        {
          "internalType": "uint256",
          "name": "",
          "type": "uint256"
        }
      ],
      "stateMutability": "view",
      "type": "function"
    },
    {
      "inputs": [
        {
          "internalType": "uint256",
          "name": "",
          "type": "uint256"
        }
      ],
      "name": "_races",
      "outputs": [
        {
          "internalType": "uint256",
          "name": "take",
          "type": "uint256"
        },
        {
          "internalType": "uint256",
          "name": "callerIncentive",
          "type": "uint256"
        },
        {
          "internalType": "uint256",
          "name": "postTime",
          "type": "uint256"
        },
        {
          "internalType": "uint256",
          "name": "pool",
          "type": "uint256"
        },
        {
          "internalType": "bool",
          "name": "finished",
          "type": "bool"
        }
      ],
      "stateMutability": "view",
      "type": "function"
    },
    {
      "inputs": [
        {
          "internalType": "uint256",
          "name": "index",
          "type": "uint256"
        }
      ],
      "name": "determineResults",
      "outputs": [],
      "stateMutability": "nonpayable",
      "type": "function"
    },
    {
      "inputs": [],
      "name": "getRaces",
      "outputs": [
        {
          "components": [
            {
              "internalType": "uint256",
              "name": "take",
              "type": "uint256"
            },
            {
              "internalType": "uint256",
              "name": "callerIncentive",
              "type": "uint256"
            },
            {
              "internalType": "uint256",
              "name": "postTime",
              "type": "uint256"
            },
            {
              "internalType": "uint256",
              "name": "pool",
              "type": "uint256"
            },
            {
              "internalType": "bool",
              "name": "finished",
              "type": "bool"
            }
          ],
          "internalType": "struct RoseDerby.Race[]",
          "name": "",
          "type": "tuple[]"
        }
      ],
      "stateMutability": "view",
      "type": "function"
    },
    {
      "inputs": [],
      "name": "getWinningsBalance",
      "outputs": [
        {
          "internalType": "uint256",
          "name": "",
          "type": "uint256"
        }
      ],
      "stateMutability": "view",
      "type": "function"
    },
    {
      "inputs": [
        {
          "internalType": "uint256",
          "name": "index",
          "type": "uint256"
        },
        {
          "internalType": "enum RoseDerby.Horse",
          "name": "horse",
          "type": "uint8"
        }
      ],
      "name": "placeBet",
      "outputs": [],
      "stateMutability": "payable",
      "type": "function"
    },
    {
      "inputs": [
        {
          "internalType": "uint256",
          "name": "postTime",
          "type": "uint256"
        },
        {
          "internalType": "uint256",
          "name": "take",
          "type": "uint256"
        },
        {
          "internalType": "uint256",
          "name": "callerIncentive",
          "type": "uint256"
        }
      ],
      "name": "scheduleRace",
      "outputs": [],
      "stateMutability": "nonpayable",
      "type": "function"
    },
    {
      "inputs": [],
      "name": "totalWon",
      "outputs": [
        {
          "internalType": "uint256",
          "name": "",
          "type": "uint256"
        }
      ],
      "stateMutability": "view",
      "type": "function"
    },
    {
      "inputs": [],
      "name": "withdraw",
      "outputs": [],
      "stateMutability": "nonpayable",
      "type": "function"
    }
  ],
  "bytecode": "0x608060405234801561001057600080fd5b50336000806101000a81548173ffffffffffffffffffffffffffffffffffffffff021916908373ffffffffffffffffffffffffffffffffffffffff160217905550612084806100606000396000f3fe6080604052600436106100865760003560e01c80633ccfd60b116100595780633ccfd60b1461013e578063741c0a0f146101555780638cf02d7714610180578063a2872b15146101a9578063b3ff277d146101d257610086565b806303edf9141461008b57806320731dec146100a757806320f9c9b4146100d257806327fc7cea146100fd575b600080fd5b6100a560048036038101906100a091906113e0565b6101fd565b005b3480156100b357600080fd5b506100bc61054e565b6040516100c9919061142f565b60405180910390f35b3480156100de57600080fd5b506100e7610553565b6040516100f4919061158b565b60405180910390f35b34801561010957600080fd5b50610124600480360381019061011f91906115ad565b6105f5565b6040516101359594939291906115e9565b60405180910390f35b34801561014a57600080fd5b50610153610648565b005b34801561016157600080fd5b5061016a610807565b604051610177919061142f565b60405180910390f35b34801561018c57600080fd5b506101a760048036038101906101a2919061163c565b61084e565b005b3480156101b557600080fd5b506101d060048036038101906101cb91906115ad565b610a69565b005b3480156101de57600080fd5b506101e7611246565b6040516101f4919061142f565b60405180910390f35b816001805490508110610245576040517f08c379a000000000000000000000000000000000000000000000000000000000815260040161023c906116ec565b60405180910390fd5b600183815481106102595761025861170c565b5b9060005260206000209060050201600201544211156102ad576040517f08c379a00000000000000000000000000000000000000000000000000000000081526004016102a490611787565b60405180910390fd5b671bc16d674ec800003410156102f8576040517f08c379a00000000000000000000000000000000000000000000000000000000081526004016102ef906117f3565b60405180910390fd5b600082600481111561030d5761030c611813565b5b905034600460008681526020019081526020016000208260ff16600581106103385761033761170c565b5b60020201600001600082825461034e9190611871565b925050819055506000600560008681526020019081526020016000208260ff166005811061037f5761037e61170c565b5b0160003373ffffffffffffffffffffffffffffffffffffffff1673ffffffffffffffffffffffffffffffffffffffff168152602001908152602001600020540361045457600460008581526020019081526020016000208160ff16600581106103eb576103ea61170c565b5b60020201600101339080600181540180825580915050600190039060005260206000200160009091909190916101000a81548173ffffffffffffffffffffffffffffffffffffffff021916908373ffffffffffffffffffffffffffffffffffffffff1602179055505b34600560008681526020019081526020016000208260ff166005811061047d5761047c61170c565b5b0160003373ffffffffffffffffffffffffffffffffffffffff1673ffffffffffffffffffffffffffffffffffffffff16815260200190815260200160002060008282546104ca9190611871565b9250508190555034600185815481106104e6576104e561170c565b5b906000526020600020906005020160030160008282546105069190611871565b925050819055507fffa237b01b68a7ca7b44fcf2b5546194ab8003cd7f3e51800b3d78e3cc56633f848434604051610540939291906118ed565b60405180910390a150505050565b600281565b60606001805480602002602001604051908101604052809291908181526020016000905b828210156105ec57838290600052602060002090600502016040518060a0016040529081600082015481526020016001820154815260200160028201548152602001600382015481526020016004820160009054906101000a900460ff16151515158152505081526020019060010190610577565b50505050905090565b6001818154811061060557600080fd5b90600052602060002090600502016000915090508060000154908060010154908060020154908060030154908060040160009054906101000a900460ff16905085565b6000600660003373ffffffffffffffffffffffffffffffffffffffff1673ffffffffffffffffffffffffffffffffffffffff168152602001908152602001600020549050600081116106cf576040517f08c379a00000000000000000000000000000000000000000000000000000000081526004016106c690611970565b60405180910390fd5b80471015610712576040517f08c379a0000000000000000000000000000000000000000000000000000000008152600401610709906119dc565b60405180910390fd5b6000600660003373ffffffffffffffffffffffffffffffffffffffff1673ffffffffffffffffffffffffffffffffffffffff1681526020019081526020016000208190555060003373ffffffffffffffffffffffffffffffffffffffff168260405161077d90611a2d565b60006040518083038185875af1925050503d80600081146107ba576040519150601f19603f3d011682016040523d82523d6000602084013e6107bf565b606091505b5050905080610803576040517f08c379a00000000000000000000000000000000000000000000000000000000081526004016107fa90611a8e565b60405180910390fd5b5050565b6000600660003373ffffffffffffffffffffffffffffffffffffffff1673ffffffffffffffffffffffffffffffffffffffff16815260200190815260200160002054905090565b60646002828461085e9190611871565b6108689190611871565b11156108a9576040517f08c379a00000000000000000000000000000000000000000000000000000000081526004016108a090611b20565b60405180910390fd5b8242106108eb576040517f08c379a00000000000000000000000000000000000000000000000000000000081526004016108e290611bb2565b60405180910390fd5b6108f361134f565b82816000018181525050818160200181815250508381604001818152505060018190806001815401808255809150506001900390600052602060002090600502016000909190919091506000820151816000015560208201518160010155604082015181600201556060820151816003015560808201518160040160006101000a81548160ff0219169083151502179055505050600360405180602001604052803373ffffffffffffffffffffffffffffffffffffffff168152509080600181540180825580915050600190039060005260206000200160009091909190915060008201518160000160006101000a81548173ffffffffffffffffffffffffffffffffffffffff021916908373ffffffffffffffffffffffffffffffffffffffff16021790555050507fd953610f43ff17e3c896e88e0508777c741486ba5556dbaf9c6488a672ab783460018080549050610a4e9190611bd2565b604051610a5b919061142f565b60405180910390a150505050565b806001805490508110610ab1576040517f08c379a0000000000000000000000000000000000000000000000000000000008152600401610aa8906116ec565b60405180910390fd5b600060018381548110610ac757610ac661170c565b5b90600052602060002090600502016040518060a0016040529081600082015481526020016001820154815260200160028201548152602001600382015481526020016004820160009054906101000a900460ff16151515158152505090508060400151421015610b6c576040517f08c379a0000000000000000000000000000000000000000000000000000000008152600401610b6390611c52565b60405180910390fd5b806080015115610bb1576040517f08c379a0000000000000000000000000000000000000000000000000000000008152600401610ba890611cbe565b60405180910390fd5b6000610bcd60056040518060200160405280600081525061124c565b905060006040518060a00160405280600060ff168152602001600160ff168152602001600260ff168152602001600360ff168152602001600460ff16815250905060005b6005811015610ce35760006005848381518110610c3157610c3061170c565b5b602001015160f81c60f81b60f81c610c499190611d1a565b90506000838260ff1660058110610c6357610c6261170c565b5b60200201519050838360058110610c7d57610c7c61170c565b5b6020020151848360ff1660058110610c9857610c9761170c565b5b602002019060ff16908160ff168152505080848460058110610cbd57610cbc61170c565b5b602002019060ff16908160ff168152505050508080610cdb90611d4b565b915050610c11565b50600081600060058110610cfa57610cf961170c565b5b602002015190506000600460008881526020019081526020016000208260ff1660058110610d2b57610d2a61170c565b5b600202016040518060400160405290816000820154815260200160018201805480602002602001604051908101604052809291908181526020018280548015610dc957602002820191906000526020600020905b8160009054906101000a900473ffffffffffffffffffffffffffffffffffffffff1673ffffffffffffffffffffffffffffffffffffffff1681526020019060010190808311610d7f575b5050505050815250509050606460028660600151610de79190611d93565b610df19190611dd5565b600660008060009054906101000a900473ffffffffffffffffffffffffffffffffffffffff1673ffffffffffffffffffffffffffffffffffffffff1673ffffffffffffffffffffffffffffffffffffffff1681526020019081526020016000206000828254610e609190611871565b92505081905550606485600001518660600151610e7d9190611d93565b610e879190611dd5565b6006600060038a81548110610e9f57610e9e61170c565b5b9060005260206000200160000160009054906101000a900473ffffffffffffffffffffffffffffffffffffffff1673ffffffffffffffffffffffffffffffffffffffff1673ffffffffffffffffffffffffffffffffffffffff1681526020019081526020016000206000828254610f169190611871565b92505081905550606485602001518660600151610f339190611d93565b610f3d9190611dd5565b600660003373ffffffffffffffffffffffffffffffffffffffff1673ffffffffffffffffffffffffffffffffffffffff1681526020019081526020016000206000828254610f8b9190611871565b9250508190555060006064866020015187600001516002610fac9190611871565b610fb69190611871565b6064610fc29190611bd2565b60018a81548110610fd657610fd561170c565b5b906000526020600020906005020160030154610ff29190611d93565b610ffc9190611dd5565b905060005b826020015151811015611140576000836020015182815181106110275761102661170c565b5b602002602001015190506000600560008c81526020019081526020016000208660ff166005811061105b5761105a61170c565b5b0160008373ffffffffffffffffffffffffffffffffffffffff1673ffffffffffffffffffffffffffffffffffffffff1681526020019081526020016000205490506000856000015182866110af9190611d93565b6110b99190611dd5565b905080600660008573ffffffffffffffffffffffffffffffffffffffff1673ffffffffffffffffffffffffffffffffffffffff168152602001908152602001600020600082825461110a9190611871565b9250508190555080600260008282546111239190611871565b92505081905550505050808061113890611d4b565b915050611001565b506000826020015151036111c65780600660008060009054906101000a900473ffffffffffffffffffffffffffffffffffffffff1673ffffffffffffffffffffffffffffffffffffffff1673ffffffffffffffffffffffffffffffffffffffff16815260200190815260200160002060008282546111be9190611871565b925050819055505b60018089815481106111db576111da61170c565b5b906000526020600020906005020160040160006101000a81548160ff0219169083151502179055507f850571c0bc8056ed8a3d8ae710220ad0c7df67810b36fdbd73ccd3dad6718b488885604051611234929190611eb1565b60405180910390a15050505050505050565b60025481565b60606112588383611260565b905092915050565b606060008073010000000000000000000000000000000000000173ffffffffffffffffffffffffffffffffffffffff1685856040516020016112a3929190611f6a565b6040516020818303038152906040526040516112bf9190611fcb565b600060405180830381855afa9150503d80600081146112fa576040519150601f19603f3d011682016040523d82523d6000602084013e6112ff565b606091505b509150915081611344576040517f08c379a000000000000000000000000000000000000000000000000000000000815260040161133b9061202e565b60405180910390fd5b809250505092915050565b6040518060a00160405280600081526020016000815260200160008152602001600081526020016000151581525090565b600080fd5b6000819050919050565b61139881611385565b81146113a357600080fd5b50565b6000813590506113b58161138f565b92915050565b600581106113c857600080fd5b50565b6000813590506113da816113bb565b92915050565b600080604083850312156113f7576113f6611380565b5b6000611405858286016113a6565b9250506020611416858286016113cb565b9150509250929050565b61142981611385565b82525050565b60006020820190506114446000830184611420565b92915050565b600081519050919050565b600082825260208201905092915050565b6000819050602082019050919050565b61147f81611385565b82525050565b60008115159050919050565b61149a81611485565b82525050565b60a0820160008201516114b66000850182611476565b5060208201516114c96020850182611476565b5060408201516114dc6040850182611476565b5060608201516114ef6060850182611476565b5060808201516115026080850182611491565b50505050565b600061151483836114a0565b60a08301905092915050565b6000602082019050919050565b60006115388261144a565b6115428185611455565b935061154d83611466565b8060005b8381101561157e5781516115658882611508565b975061157083611520565b925050600181019050611551565b5085935050505092915050565b600060208201905081810360008301526115a5818461152d565b905092915050565b6000602082840312156115c3576115c2611380565b5b60006115d1848285016113a6565b91505092915050565b6115e381611485565b82525050565b600060a0820190506115fe6000830188611420565b61160b6020830187611420565b6116186040830186611420565b6116256060830185611420565b61163260808301846115da565b9695505050505050565b60008060006060848603121561165557611654611380565b5b6000611663868287016113a6565b9350506020611674868287016113a6565b9250506040611685868287016113a6565b9150509250925092565b600082825260208201905092915050565b7f4e6f207375636820726163650000000000000000000000000000000000000000600082015250565b60006116d6600c8361168f565b91506116e1826116a0565b602082019050919050565b60006020820190508181036000830152611705816116c9565b9050919050565b7f4e487b7100000000000000000000000000000000000000000000000000000000600052603260045260246000fd5b7f5261636520616c72656164792073746172746564000000000000000000000000600082015250565b600061177160148361168f565b915061177c8261173b565b602082019050919050565b600060208201905081810360008301526117a081611764565b9050919050565b7f4d696e696d756d20626574206973203220524f53450000000000000000000000600082015250565b60006117dd60158361168f565b91506117e8826117a7565b602082019050919050565b6000602082019050818103600083015261180c816117d0565b9050919050565b7f4e487b7100000000000000000000000000000000000000000000000000000000600052602160045260246000fd5b7f4e487b7100000000000000000000000000000000000000000000000000000000600052601160045260246000fd5b600061187c82611385565b915061188783611385565b925082820190508082111561189f5761189e611842565b5b92915050565b600581106118b6576118b5611813565b5b50565b60008190506118c7826118a5565b919050565b60006118d7826118b9565b9050919050565b6118e7816118cc565b82525050565b60006060820190506119026000830186611420565b61190f60208301856118de565b61191c6040830184611420565b949350505050565b7f4e6f2066756e647320746f207769746864726177000000000000000000000000600082015250565b600061195a60148361168f565b915061196582611924565b602082019050919050565b600060208201905081810360008301526119898161194d565b9050919050565b7f496e73756666696369656e7420636f6e74726163742062616c616e6365000000600082015250565b60006119c6601d8361168f565b91506119d182611990565b602082019050919050565b600060208201905081810360008301526119f5816119b9565b9050919050565b600081905092915050565b50565b6000611a176000836119fc565b9150611a2282611a07565b600082019050919050565b6000611a3882611a0a565b9150819050919050565b7f5472616e73666572206661696c65642e00000000000000000000000000000000600082015250565b6000611a7860108361168f565b9150611a8382611a42565b602082019050919050565b60006020820190508181036000830152611aa781611a6b565b9050919050565b7f54616b656f7574206164647320757020746f206d6f7265207468616e2031303060008201527f2500000000000000000000000000000000000000000000000000000000000000602082015250565b6000611b0a60218361168f565b9150611b1582611aae565b604082019050919050565b60006020820190508181036000830152611b3981611afd565b9050919050565b7f506f73742074696d652073686f756c6420626520696e2074686520667574757260008201527f6500000000000000000000000000000000000000000000000000000000000000602082015250565b6000611b9c60218361168f565b9150611ba782611b40565b604082019050919050565b60006020820190508181036000830152611bcb81611b8f565b9050919050565b6000611bdd82611385565b9150611be883611385565b9250828203905081811115611c0057611bff611842565b5b92915050565b7f52616365206861736e2774207374617274656400000000000000000000000000600082015250565b6000611c3c60138361168f565b9150611c4782611c06565b602082019050919050565b60006020820190508181036000830152611c6b81611c2f565b9050919050565b7f5261636520726573756c747320616c72656164792064657465726d696e656400600082015250565b6000611ca8601f8361168f565b9150611cb382611c72565b602082019050919050565b60006020820190508181036000830152611cd781611c9b565b9050919050565b600060ff82169050919050565b7f4e487b7100000000000000000000000000000000000000000000000000000000600052601260045260246000fd5b6000611d2582611cde565b9150611d3083611cde565b925082611d4057611d3f611ceb565b5b828206905092915050565b6000611d5682611385565b91507fffffffffffffffffffffffffffffffffffffffffffffffffffffffffffffffff8203611d8857611d87611842565b5b600182019050919050565b6000611d9e82611385565b9150611da983611385565b9250828202611db781611385565b91508282048414831517611dce57611dcd611842565b5b5092915050565b6000611de082611385565b9150611deb83611385565b925082611dfb57611dfa611ceb565b5b828204905092915050565b600060059050919050565b600081905092915050565b6000819050919050565b611e2f81611cde565b82525050565b6000611e418383611e26565b60208301905092915050565b6000602082019050919050565b611e6381611e06565b611e6d8184611e11565b9250611e7882611e1c565b8060005b83811015611ea9578151611e908782611e35565b9650611e9b83611e4d565b925050600181019050611e7c565b505050505050565b600060c082019050611ec66000830185611420565b611ed36020830184611e5a565b9392505050565b600081519050919050565b600082825260208201905092915050565b60005b83811015611f14578082015181840152602081019050611ef9565b60008484015250505050565b6000601f19601f8301169050919050565b6000611f3c82611eda565b611f468185611ee5565b9350611f56818560208601611ef6565b611f5f81611f20565b840191505092915050565b6000604082019050611f7f6000830185611420565b8181036020830152611f918184611f31565b90509392505050565b6000611fa582611eda565b611faf81856119fc565b9350611fbf818560208601611ef6565b80840191505092915050565b6000611fd78284611f9a565b915081905092915050565b7f72616e646f6d42797465733a206661696c656400000000000000000000000000600082015250565b600061201860138361168f565b915061202382611fe2565b602082019050919050565b600060208201905081810360008301526120478161200b565b905091905056fea2646970667358221220e47b45da83ab4791d550ef1c82cbabebd3bcd9f20f6dc9df6fa8c4fea5c0dcc064736f6c63430008130033",
  "linkReferences": {},
  "deployedLinkReferences": {}
}