{
  "_format": "hh-sol-artifact-1",
  "contractName": "RoseDerby",
  "sourceName": "contracts/RoseDerby.sol",
  "abi": [
    {
      "inputs": [],
      "stateMutability": "nonpayable",
      "type": "constructor"
    },
    {
      "anonymous": false,
      "inputs": [
        {
          "indexed": false,
          "internalType": "uint256",
          "name": "index",
          "type": "uint256"
        },
        {
          "indexed": false,
          "internalType": "enum RoseDerby.Horse",
          "name": "horse",
          "type": "uint8"
        },
        {
          "indexed": false,
          "internalType": "uint256",
          "name": "amount",
          "type": "uint256"
        }
      ],
      "name": "BetPlaced",
      "type": "event"
    },
    {
      "anonymous": false,
      "inputs": [
        {
          "indexed": false,
          "internalType": "uint256",
          "name": "index",
          "type": "uint256"
        },
        {
          "indexed": false,
          "internalType": "uint8[5]",
          "name": "results",
          "type": "uint8[5]"
        }
      ],
      "name": "RaceResultsDetermined",
      "type": "event"
    },
    {
      "anonymous": false,
      "inputs": [
        {
          "indexed": false,
          "internalType": "uint256",
          "name": "index",
          "type": "uint256"
        }
      ],
      "name": "RaceScheduled",
      "type": "event"
    },
    {
      "inputs": [],
      "name": "OWNER_TAKE",
      "outputs": [
        {
          "internalType": "uint256",
          "name": "",
          "type": "uint256"
        }
      ],
      "stateMutability": "view",
      "type": "function"
    },
    {
      "inputs": [
        {
          "internalType": "uint256",
          "name": "",
          "type": "uint256"
        }
      ],
      "name": "_races",
      "outputs": [
        {
          "internalType": "uint256",
          "name": "take",
          "type": "uint256"
        },
        {
          "internalType": "uint256",
          "name": "callerIncentive",
          "type": "uint256"
        },
        {
          "internalType": "uint256",
          "name": "postTime",
          "type": "uint256"
        },
        {
          "internalType": "uint256",
          "name": "pool",
          "type": "uint256"
        },
        {
          "internalType": "bool",
          "name": "finished",
          "type": "bool"
        }
      ],
      "stateMutability": "view",
      "type": "function"
    },
    {
      "inputs": [
        {
          "internalType": "uint256",
          "name": "index",
          "type": "uint256"
        }
      ],
      "name": "determineResults",
      "outputs": [],
      "stateMutability": "nonpayable",
      "type": "function"
    },
    {
      "inputs": [],
      "name": "getRaces",
      "outputs": [
        {
          "components": [
            {
              "internalType": "uint256",
              "name": "take",
              "type": "uint256"
            },
            {
              "internalType": "uint256",
              "name": "callerIncentive",
              "type": "uint256"
            },
            {
              "internalType": "uint256",
              "name": "postTime",
              "type": "uint256"
            },
            {
              "internalType": "uint256",
              "name": "pool",
              "type": "uint256"
            },
            {
              "internalType": "bool",
              "name": "finished",
              "type": "bool"
            }
          ],
          "internalType": "struct RoseDerby.Race[]",
          "name": "",
          "type": "tuple[]"
        }
      ],
      "stateMutability": "view",
      "type": "function"
    },
    {
      "inputs": [],
      "name": "getWinningsBalance",
      "outputs": [
        {
          "internalType": "uint256",
          "name": "",
          "type": "uint256"
        }
      ],
      "stateMutability": "view",
      "type": "function"
    },
    {
      "inputs": [
        {
          "internalType": "uint256",
          "name": "index",
          "type": "uint256"
        },
        {
          "internalType": "enum RoseDerby.Horse",
          "name": "horse",
          "type": "uint8"
        }
      ],
      "name": "placeBet",
      "outputs": [],
      "stateMutability": "payable",
      "type": "function"
    },
    {
      "inputs": [
        {
          "internalType": "uint256",
          "name": "postTime",
          "type": "uint256"
        },
        {
          "internalType": "uint256",
          "name": "take",
          "type": "uint256"
        },
        {
          "internalType": "uint256",
          "name": "callerIncentive",
          "type": "uint256"
        }
      ],
      "name": "scheduleRace",
      "outputs": [],
      "stateMutability": "nonpayable",
      "type": "function"
    },
    {
      "inputs": [],
      "name": "withdraw",
      "outputs": [],
      "stateMutability": "nonpayable",
      "type": "function"
    }
  ],
  "bytecode": "0x608060405234801561001057600080fd5b50336000806101000a81548173ffffffffffffffffffffffffffffffffffffffff021916908373ffffffffffffffffffffffffffffffffffffffff160217905550612029806100606000396000f3fe60806040526004361061007b5760003560e01c80633ccfd60b1161004e5780633ccfd60b14610133578063741c0a0f1461014a5780638cf02d7714610175578063a2872b151461019e5761007b565b806303edf9141461008057806320731dec1461009c57806320f9c9b4146100c757806327fc7cea146100f2575b600080fd5b61009a60048036038101906100959190611385565b6101c7565b005b3480156100a857600080fd5b506100b1610518565b6040516100be91906113d4565b60405180910390f35b3480156100d357600080fd5b506100dc61051d565b6040516100e99190611530565b60405180910390f35b3480156100fe57600080fd5b5061011960048036038101906101149190611552565b6105bf565b60405161012a95949392919061158e565b60405180910390f35b34801561013f57600080fd5b50610148610612565b005b34801561015657600080fd5b5061015f6107d1565b60405161016c91906113d4565b60405180910390f35b34801561018157600080fd5b5061019c600480360381019061019791906115e1565b610818565b005b3480156101aa57600080fd5b506101c560048036038101906101c09190611552565b610a33565b005b81600180549050811061020f576040517f08c379a000000000000000000000000000000000000000000000000000000000815260040161020690611691565b60405180910390fd5b60018381548110610223576102226116b1565b5b906000526020600020906005020160020154421115610277576040517f08c379a000000000000000000000000000000000000000000000000000000000815260040161026e9061172c565b60405180910390fd5b671bc16d674ec800003410156102c2576040517f08c379a00000000000000000000000000000000000000000000000000000000081526004016102b990611798565b60405180910390fd5b60008260048111156102d7576102d66117b8565b5b905034600360008681526020019081526020016000208260ff1660058110610302576103016116b1565b5b6002020160000160008282546103189190611816565b925050819055506000600460008681526020019081526020016000208260ff1660058110610349576103486116b1565b5b0160003373ffffffffffffffffffffffffffffffffffffffff1673ffffffffffffffffffffffffffffffffffffffff168152602001908152602001600020540361041e57600360008581526020019081526020016000208160ff16600581106103b5576103b46116b1565b5b60020201600101339080600181540180825580915050600190039060005260206000200160009091909190916101000a81548173ffffffffffffffffffffffffffffffffffffffff021916908373ffffffffffffffffffffffffffffffffffffffff1602179055505b34600460008681526020019081526020016000208260ff1660058110610447576104466116b1565b5b0160003373ffffffffffffffffffffffffffffffffffffffff1673ffffffffffffffffffffffffffffffffffffffff16815260200190815260200160002060008282546104949190611816565b9250508190555034600185815481106104b0576104af6116b1565b5b906000526020600020906005020160030160008282546104d09190611816565b925050819055507fffa237b01b68a7ca7b44fcf2b5546194ab8003cd7f3e51800b3d78e3cc56633f84843460405161050a93929190611892565b60405180910390a150505050565b600281565b60606001805480602002602001604051908101604052809291908181526020016000905b828210156105b657838290600052602060002090600502016040518060a0016040529081600082015481526020016001820154815260200160028201548152602001600382015481526020016004820160009054906101000a900460ff16151515158152505081526020019060010190610541565b50505050905090565b600181815481106105cf57600080fd5b90600052602060002090600502016000915090508060000154908060010154908060020154908060030154908060040160009054906101000a900460ff16905085565b6000600560003373ffffffffffffffffffffffffffffffffffffffff1673ffffffffffffffffffffffffffffffffffffffff16815260200190815260200160002054905060008111610699576040517f08c379a000000000000000000000000000000000000000000000000000000000815260040161069090611915565b60405180910390fd5b804710156106dc576040517f08c379a00000000000000000000000000000000000000000000000000000000081526004016106d390611981565b60405180910390fd5b6000600560003373ffffffffffffffffffffffffffffffffffffffff1673ffffffffffffffffffffffffffffffffffffffff1681526020019081526020016000208190555060003373ffffffffffffffffffffffffffffffffffffffff1682604051610747906119d2565b60006040518083038185875af1925050503d8060008114610784576040519150601f19603f3d011682016040523d82523d6000602084013e610789565b606091505b50509050806107cd576040517f08c379a00000000000000000000000000000000000000000000000000000000081526004016107c490611a33565b60405180910390fd5b5050565b6000600560003373ffffffffffffffffffffffffffffffffffffffff1673ffffffffffffffffffffffffffffffffffffffff16815260200190815260200160002054905090565b6064600282846108289190611816565b6108329190611816565b1115610873576040517f08c379a000000000000000000000000000000000000000000000000000000000815260040161086a90611ac5565b60405180910390fd5b8242106108b5576040517f08c379a00000000000000000000000000000000000000000000000000000000081526004016108ac90611b57565b60405180910390fd5b6108bd6112f4565b82816000018181525050818160200181815250508381604001818152505060018190806001815401808255809150506001900390600052602060002090600502016000909190919091506000820151816000015560208201518160010155604082015181600201556060820151816003015560808201518160040160006101000a81548160ff0219169083151502179055505050600260405180602001604052803373ffffffffffffffffffffffffffffffffffffffff168152509080600181540180825580915050600190039060005260206000200160009091909190915060008201518160000160006101000a81548173ffffffffffffffffffffffffffffffffffffffff021916908373ffffffffffffffffffffffffffffffffffffffff16021790555050507fd953610f43ff17e3c896e88e0508777c741486ba5556dbaf9c6488a672ab783460018080549050610a189190611b77565b604051610a2591906113d4565b60405180910390a150505050565b806001805490508110610a7b576040517f08c379a0000000000000000000000000000000000000000000000000000000008152600401610a7290611691565b60405180910390fd5b600060018381548110610a9157610a906116b1565b5b90600052602060002090600502016040518060a0016040529081600082015481526020016001820154815260200160028201548152602001600382015481526020016004820160009054906101000a900460ff16151515158152505090508060400151421015610b36576040517f08c379a0000000000000000000000000000000000000000000000000000000008152600401610b2d90611bf7565b60405180910390fd5b806080015115610b7b576040517f08c379a0000000000000000000000000000000000000000000000000000000008152600401610b7290611c63565b60405180910390fd5b6000610b976005604051806020016040528060008152506111f1565b905060006040518060a00160405280600060ff168152602001600160ff168152602001600260ff168152602001600360ff168152602001600460ff16815250905060005b6005811015610cad5760006005848381518110610bfb57610bfa6116b1565b5b602001015160f81c60f81b60f81c610c139190611cbf565b90506000838260ff1660058110610c2d57610c2c6116b1565b5b60200201519050838360058110610c4757610c466116b1565b5b6020020151848360ff1660058110610c6257610c616116b1565b5b602002019060ff16908160ff168152505080848460058110610c8757610c866116b1565b5b602002019060ff16908160ff168152505050508080610ca590611cf0565b915050610bdb565b50600081600060058110610cc457610cc36116b1565b5b602002015190506000600360008881526020019081526020016000208260ff1660058110610cf557610cf46116b1565b5b600202016040518060400160405290816000820154815260200160018201805480602002602001604051908101604052809291908181526020018280548015610d9357602002820191906000526020600020905b8160009054906101000a900473ffffffffffffffffffffffffffffffffffffffff1673ffffffffffffffffffffffffffffffffffffffff1681526020019060010190808311610d49575b5050505050815250509050606460028660600151610db19190611d38565b610dbb9190611d7a565b600560008060009054906101000a900473ffffffffffffffffffffffffffffffffffffffff1673ffffffffffffffffffffffffffffffffffffffff1673ffffffffffffffffffffffffffffffffffffffff1681526020019081526020016000206000828254610e2a9190611816565b92505081905550606485600001518660600151610e479190611d38565b610e519190611d7a565b6005600060028a81548110610e6957610e686116b1565b5b9060005260206000200160000160009054906101000a900473ffffffffffffffffffffffffffffffffffffffff1673ffffffffffffffffffffffffffffffffffffffff1673ffffffffffffffffffffffffffffffffffffffff1681526020019081526020016000206000828254610ee09190611816565b92505081905550606485602001518660600151610efd9190611d38565b610f079190611d7a565b600560003373ffffffffffffffffffffffffffffffffffffffff1673ffffffffffffffffffffffffffffffffffffffff1681526020019081526020016000206000828254610f559190611816565b9250508190555060006064866020015187600001516002610f769190611816565b610f809190611816565b6064610f8c9190611b77565b60018a81548110610fa057610f9f6116b1565b5b906000526020600020906005020160030154610fbc9190611d38565b610fc69190611d7a565b905060005b8260200151518110156110eb57600083602001518281518110610ff157610ff06116b1565b5b602002602001015190506000600460008c81526020019081526020016000208660ff1660058110611025576110246116b1565b5b0160008373ffffffffffffffffffffffffffffffffffffffff1673ffffffffffffffffffffffffffffffffffffffff168152602001908152602001600020549050846000015181856110779190611d38565b6110819190611d7a565b600560008473ffffffffffffffffffffffffffffffffffffffff1673ffffffffffffffffffffffffffffffffffffffff16815260200190815260200160002060008282546110cf9190611816565b92505081905550505080806110e390611cf0565b915050610fcb565b506000826020015151036111715780600560008060009054906101000a900473ffffffffffffffffffffffffffffffffffffffff1673ffffffffffffffffffffffffffffffffffffffff1673ffffffffffffffffffffffffffffffffffffffff16815260200190815260200160002060008282546111699190611816565b925050819055505b6001808981548110611186576111856116b1565b5b906000526020600020906005020160040160006101000a81548160ff0219169083151502179055507f850571c0bc8056ed8a3d8ae710220ad0c7df67810b36fdbd73ccd3dad6718b4888856040516111df929190611e56565b60405180910390a15050505050505050565b60606111fd8383611205565b905092915050565b606060008073010000000000000000000000000000000000000173ffffffffffffffffffffffffffffffffffffffff168585604051602001611248929190611f0f565b6040516020818303038152906040526040516112649190611f70565b600060405180830381855afa9150503d806000811461129f576040519150601f19603f3d011682016040523d82523d6000602084013e6112a4565b606091505b5091509150816112e9576040517f08c379a00000000000000000000000000000000000000000000000000000000081526004016112e090611fd3565b60405180910390fd5b809250505092915050565b6040518060a00160405280600081526020016000815260200160008152602001600081526020016000151581525090565b600080fd5b6000819050919050565b61133d8161132a565b811461134857600080fd5b50565b60008135905061135a81611334565b92915050565b6005811061136d57600080fd5b50565b60008135905061137f81611360565b92915050565b6000806040838503121561139c5761139b611325565b5b60006113aa8582860161134b565b92505060206113bb85828601611370565b9150509250929050565b6113ce8161132a565b82525050565b60006020820190506113e960008301846113c5565b92915050565b600081519050919050565b600082825260208201905092915050565b6000819050602082019050919050565b6114248161132a565b82525050565b60008115159050919050565b61143f8161142a565b82525050565b60a08201600082015161145b600085018261141b565b50602082015161146e602085018261141b565b506040820151611481604085018261141b565b506060820151611494606085018261141b565b5060808201516114a76080850182611436565b50505050565b60006114b98383611445565b60a08301905092915050565b6000602082019050919050565b60006114dd826113ef565b6114e781856113fa565b93506114f28361140b565b8060005b8381101561152357815161150a88826114ad565b9750611515836114c5565b9250506001810190506114f6565b5085935050505092915050565b6000602082019050818103600083015261154a81846114d2565b905092915050565b60006020828403121561156857611567611325565b5b60006115768482850161134b565b91505092915050565b6115888161142a565b82525050565b600060a0820190506115a360008301886113c5565b6115b060208301876113c5565b6115bd60408301866113c5565b6115ca60608301856113c5565b6115d7608083018461157f565b9695505050505050565b6000806000606084860312156115fa576115f9611325565b5b60006116088682870161134b565b93505060206116198682870161134b565b925050604061162a8682870161134b565b9150509250925092565b600082825260208201905092915050565b7f4e6f207375636820726163650000000000000000000000000000000000000000600082015250565b600061167b600c83611634565b915061168682611645565b602082019050919050565b600060208201905081810360008301526116aa8161166e565b9050919050565b7f4e487b7100000000000000000000000000000000000000000000000000000000600052603260045260246000fd5b7f5261636520616c72656164792073746172746564000000000000000000000000600082015250565b6000611716601483611634565b9150611721826116e0565b602082019050919050565b6000602082019050818103600083015261174581611709565b9050919050565b7f4d696e696d756d20626574206973203220524f53450000000000000000000000600082015250565b6000611782601583611634565b915061178d8261174c565b602082019050919050565b600060208201905081810360008301526117b181611775565b9050919050565b7f4e487b7100000000000000000000000000000000000000000000000000000000600052602160045260246000fd5b7f4e487b7100000000000000000000000000000000000000000000000000000000600052601160045260246000fd5b60006118218261132a565b915061182c8361132a565b9250828201905080821115611844576118436117e7565b5b92915050565b6005811061185b5761185a6117b8565b5b50565b600081905061186c8261184a565b919050565b600061187c8261185e565b9050919050565b61188c81611871565b82525050565b60006060820190506118a760008301866113c5565b6118b46020830185611883565b6118c160408301846113c5565b949350505050565b7f4e6f2066756e647320746f207769746864726177000000000000000000000000600082015250565b60006118ff601483611634565b915061190a826118c9565b602082019050919050565b6000602082019050818103600083015261192e816118f2565b9050919050565b7f496e73756666696369656e7420636f6e74726163742062616c616e6365000000600082015250565b600061196b601d83611634565b915061197682611935565b602082019050919050565b6000602082019050818103600083015261199a8161195e565b9050919050565b600081905092915050565b50565b60006119bc6000836119a1565b91506119c7826119ac565b600082019050919050565b60006119dd826119af565b9150819050919050565b7f5472616e73666572206661696c65642e00000000000000000000000000000000600082015250565b6000611a1d601083611634565b9150611a28826119e7565b602082019050919050565b60006020820190508181036000830152611a4c81611a10565b9050919050565b7f54616b656f7574206164647320757020746f206d6f7265207468616e2031303060008201527f2500000000000000000000000000000000000000000000000000000000000000602082015250565b6000611aaf602183611634565b9150611aba82611a53565b604082019050919050565b60006020820190508181036000830152611ade81611aa2565b9050919050565b7f506f73742074696d652073686f756c6420626520696e2074686520667574757260008201527f6500000000000000000000000000000000000000000000000000000000000000602082015250565b6000611b41602183611634565b9150611b4c82611ae5565b604082019050919050565b60006020820190508181036000830152611b7081611b34565b9050919050565b6000611b828261132a565b9150611b8d8361132a565b9250828203905081811115611ba557611ba46117e7565b5b92915050565b7f52616365206861736e2774207374617274656400000000000000000000000000600082015250565b6000611be1601383611634565b9150611bec82611bab565b602082019050919050565b60006020820190508181036000830152611c1081611bd4565b9050919050565b7f5261636520726573756c747320616c72656164792064657465726d696e656400600082015250565b6000611c4d601f83611634565b9150611c5882611c17565b602082019050919050565b60006020820190508181036000830152611c7c81611c40565b9050919050565b600060ff82169050919050565b7f4e487b7100000000000000000000000000000000000000000000000000000000600052601260045260246000fd5b6000611cca82611c83565b9150611cd583611c83565b925082611ce557611ce4611c90565b5b828206905092915050565b6000611cfb8261132a565b91507fffffffffffffffffffffffffffffffffffffffffffffffffffffffffffffffff8203611d2d57611d2c6117e7565b5b600182019050919050565b6000611d438261132a565b9150611d4e8361132a565b9250828202611d5c8161132a565b91508282048414831517611d7357611d726117e7565b5b5092915050565b6000611d858261132a565b9150611d908361132a565b925082611da057611d9f611c90565b5b828204905092915050565b600060059050919050565b600081905092915050565b6000819050919050565b611dd481611c83565b82525050565b6000611de68383611dcb565b60208301905092915050565b6000602082019050919050565b611e0881611dab565b611e128184611db6565b9250611e1d82611dc1565b8060005b83811015611e4e578151611e358782611dda565b9650611e4083611df2565b925050600181019050611e21565b505050505050565b600060c082019050611e6b60008301856113c5565b611e786020830184611dff565b9392505050565b600081519050919050565b600082825260208201905092915050565b60005b83811015611eb9578082015181840152602081019050611e9e565b60008484015250505050565b6000601f19601f8301169050919050565b6000611ee182611e7f565b611eeb8185611e8a565b9350611efb818560208601611e9b565b611f0481611ec5565b840191505092915050565b6000604082019050611f2460008301856113c5565b8181036020830152611f368184611ed6565b90509392505050565b6000611f4a82611e7f565b611f5481856119a1565b9350611f64818560208601611e9b565b80840191505092915050565b6000611f7c8284611f3f565b915081905092915050565b7f72616e646f6d42797465733a206661696c656400000000000000000000000000600082015250565b6000611fbd601383611634565b9150611fc882611f87565b602082019050919050565b60006020820190508181036000830152611fec81611fb0565b905091905056fea2646970667358221220b3b75a7a7ab78fdec9545bc4f7638cd5ee71de4d447988e86b0b7c5917a14fff64736f6c63430008130033",
  "linkReferences": {},
  "deployedLinkReferences": {}
}